S01C00004578616D706C65735F666F725F686F6D65776F726B2E73333728
S11300000000022091010000BD010000BD010000BC
S1130010BD010000BD010000BD010000BD010000E4
S1130020BD010000BD010000BD010000BD010000D4
S1130030BD010000BD010000BD010000BD010000C4
S1130040BD010000F90A000015310000BD010000E7
S1130050BD010000BD010000BD010000BD010000A4
S1130060BD010000BD010000BD010000210B000026
S1130070BD310000BD010000BD010000BD01000054
S1130080BD01000011070000BD010000BD0100001A
S1130090992C0000BD010000BD010000BD0100005D
S11300A0BD010000BD010000BD010000BD01000054
S11300B0BD010000BD010000BD010000BD01000044
S11300C0BD010000BD010000BD010000BD01000034
S11300D0BD010000BD010000BD01000010B5054CCC
S11300E0237833B9044B13B10448AFF300800123E0
S11300F0237010BDBC000020000000002C4A00004A
S113010008B5034B1BB103490348AFF3008008BD96
S113011000000000C00000202C4A0000154B002BFA
S113012008BF134B9D46A3F5803A00218B460F462A
S11301301348144A121A03F0CBF90F4B002B00D0CA
S113014098470E4B002B00D0984700200021040054
S11301500D000D48002802D00C48AFF3008003F0D6
S113016093F92000290003F074F903F079F900BF32
S11301700000080000000220000000000000000051
S1130180BC0000209C0100200000000000000000D2
S1130190064880470649074A074B9A42BEBF51F8B2
S11301A0040B42F8040BF8E7FFF7B8FF350300002F
S11301B0384A000000000020BC000020FEE700BF19
S11301C080B400AF034BDB6C1B0EDBB21846BD469C
S11301D080BC7047B081E00F80B582B000AF00F002
S11301E01FF87860074B5B6803F00F037A6822FA04
S11301F003F37B60044A7B6813607B681846083706
S1130200BD4680BD00800C400800002080B400AFD3
S1130210024B1846BD4680BC704700BF006CDC0230
S113022080B582B000AF334BDB6A03F47053B3F58F
S1130230805F0AD0B3F5005F03D0B3F5006F08D038
S11302400BE02D4B1B687B6047E04FF400437B6061
S113025043E02A4B1B687B603FE0264BDB6803F4DA
S1130260E063B3F5007F1BD0B3F5007F05D8002B06
S113027024D0B3F5807F16D02BE0B3F5806F09D07E
S1130280B3F5A06F03D0B3F5407F06D021E01C4B3B
S11302907B6021E01B4B7B601EE01B4B7B601BE003
S11302A01A4B7B6018E0FFF78BFF0346122B02D931
S11302B0174B7B6010E0174B7B600DE0FFF780FF6E
S11302C00346122B02D9144B7B6005E0134B7B6071
S11302D002E000237B6000BF00BF064B1B689B0B42
S11302E003F0070301337A68B2FBF3F318460837C7
S11302F0BD4680BD00800C400400002000000020AA
S1130300003FAB01406F4001809FD500C0D8A700DB
S113031040B56400C0CF6A00804F120040420F0015
S113032080B400AF024B1B681846BD4680BC7047C2
S11303300000002080B400AF00BFBD4680BC704701
S113034080B400AF4FF400431846BD4680BC7047EC
S113035080B400AF4FF47A731846BD4680BC704732
S113036080B400AF024B1B681846BD4680BC704782
S11303700400002080B483B000AF0346FB71FB7916
S113038003F01F02064997F907305B09012000FAC0
S113039002F241F8232000BF0C37BD4680BC7047F1
S11303A000E100E080B500AFFFF716FF00BF80BD9D
S11303B080B400AF024B1B6A1846BD4680BC704730
S11303C000C0084080B400AF024B9B6A1846BD468B
S11303D080BC704700C0084080B483B000AF786030
S11303E0054A7B6803F00F03A03352F82330184604
S11303F00C37BD4680BC704700C0084080B483B051
S113040000AF7860034A7B68536400BF0C37BD4675
S113041080BC704700C0084080B483B000AF7860EF
S1130420054BDA6C04497B681343CB6400BF0C377B
S1130430BD4680BC704700BF00C0084080B483B094
S113044000AF7860054BDA6C7B68DB4303491340EB
S1130450CB6400BF0C37BD4680BC704700C0084069
S113046080B483B000AF064BDB6C7B60044B1A6C2A
S11304707B68134018460C37BD4680BC704700BFEC
S113048000C0084080B500AFFFF78CFF05211120A4
S113049001F0AAF90321124801F0A6F9012111483B
S11304A001F0A2F90121104800F09CFF01210F483E
S11304B000F098FF01210E4800F094FF01210D483F
S11304C000F090FF01210C4800F08CFF01210B4843
S11304D000F088FF0121094800F06EFE00BF80BDD6
S11304E002001C0003001E004081040000D204002E
S11304F00092040000A204000043020080062C00C5
S113050080B500AF0021022001F0BCFB00230022D3
S11305100821022001F058FC0023002209210220B6
S113052001F052FC002300220A21022001F04CFCBD
S1130530002300220B21022001F046FC00BF80BDF5
S113054080B500AF002300220021094800F06AFBB7
S1130550002300220021074800F064FB06490448F8
S113056000F01CFB0449034800F018FB00BF80BDE9
S113057000100040001400407844000080B584B0AE
S113058000AF0346FB715B4B1B78002B03D00121AA
S1130590594801F0BBFCFB79002B37D001F07CFFFC
S11305A000BFFFF705FF034603F01003002BF8D14B
S11305B001F08CFF0421002001F05CFD00210020EB
S11305C001F0F0FD4D4801F01DFE4D4B1B881A460D
S11305D03721082001F0F8FE494B5B881A46372181
S11305E0092001F0F1FE464B9B881A4637210A2068
S11305F001F0EAFE424BDB881A4637210B2001F05A
S1130600E3FE4FF48030FFF719FF1EE001F044FFD2
S113061000BFFFF7CDFE034603F01003002BF8D113
S11306204FF48030FFF7EAFE01F050FF4021002034
S113063001F020FD0321002001F0B4FD314801F058
S1130640E1FD4FF48030FFF7E7FE1120FFF792FE43
S113065001F008FF274B1B78002B47D0254B0022C5
S11306601A7000BF284B1B6A03F00203002BF9D059
S11306700023FB730023BB7319E0BB7B234AD35CC9
S1130680002B11D0FB7B032B0BD8BB7B1846FFF749
S1130690A3FE03469AB2FB7B013A91B2184A22F8B0
S11306A01310FB7B0133FB73BB7B0133BB73BB7B3D
S11306B00F2BE2D9124B1B881A463721082001F070
S11306C083FE0F4B5B881A463721092001F07CFE1C
S11306D00B4B9B881A4637210A2001F075FE084B04
S11306E0DB881A4637210B2001F06EFE00BF10375D
S11306F0BD4680BD4C0000208C440000CC4400006A
S113070024010020CC46000000C008403C44000006
S113071080B582B000AFFFF7A3FE034603F4803335
S1130720002B44D04FF48030FFF768FE2B4B00229F
S11307301A7030E0294B1B78DBB21A46284B9B5CBD
S113074083F00103DBB2002B1DD1FFF73BFE786081
S1130750224B1B78DBB21946224A7B6842F82130CF
S11307601E4B1B78DBB21A461F4B53F822307A68B3
S11307709A4209D9194B1B78DBB219461A4A7B688D
S113078042F8213000E000BF144B1B78DBB2013388
S1130790DAB2124B1A70114B1B78DBB20F2BC9D98A
S11307A0124B1B68002B02D0104B1B689847FFF7B5
S11307B057FE034603F47063002B0AD04FF47060B5
S11307C0FFF71CFE0A4B1B68002B02D0084B1B686A
S11307D0984700BF0837BD4680BD00BF20010020F8
S11307E03C440000D80000200C0000201801002028
S11307F01C010020B0B491B000AF4FF0FF33BB63D5
S1130800EC237B634F4B07F118041D460FCD0FC437
S113081095E8030084E803004B4B3C1D1D460FCDB7
S11308200FC42B6823600123FB6344E0FB6B9B0034
S113083007F14002134453F83C3C013B434A52F84D
S113084023301A02FB6B9B0007F140010B4443F871
S1130850282CFB6B9B0007F14002134453F83C3CEB
S1130860013B3B4A52F82320FB6B9B0007F14001FC
S11308700B4453F8283CB3FBF2F2FB6B9B0007F1EB
S113088040010B4443F8282CFB6B9B0007F140020A
S1130890134453F8283C7A6B9A4209D9FB6B9B00AA
S11308A007F14002134453F8283C7B63FB6BBB63A2
S11308B0FB6B0133FB63FB6B042BB7DDBB6BB3F149
S11308C0FF3F02D14FF0FF3336E0BB6B013B1B010E
S11308D03B633A6BBB6B013B9B0007F140010B444C
S11308E053F8283CC3F58073D900BB6B9B0007F118
S11308F04000034453F8283CC3F58073B1FBF3F381
S1130900D31A3B63BB6B01339B0007F140021344D2
S113091053F8283CC3F58073DA00BB6B9B0007F1E6
S113092040010B4453F8283CC3F58073B2FBF3F247
S11309303B6B13443B633B6B18464437BD46B0BC2A
S1130940704700BF4C44000064440000D8000020FD
S11309500C00002080B584B000AF0346FB7101F0A9
S1130960F3F8F860FFF78EFDFFF7CAFDFFF7E8FD27
S1130970FB791846FFF702FEF86801F0F4F800BFAF
S11309801037BD4680BD000080B483B000AF03467D
S1130990FB71FB7903F01F02064997F907305B09E5
S11309A0012000FA02F241F8232000BF0C37BD46B3
S11309B080BC704700E100E080B483B000AF034620
S11309C0FB71FB7903F01F02074997F907305B09B4
S11309D0012000FA02F2603341F8232000BF0C37F3
S11309E0BD4680BC704700BF00E100E080B483B026
S11309F000AF7860044A7B68C2F81C3100BF0C3732
S1130A00BD4680BC704700BF0060004080B483B026
S1130A1000AF074BD3F810317B60054BD3F814219A
S1130A207B68134018460C37BD4680BC704700BF36
S1130A300060004080B485B000AF78607B68FB60E4
S1130A40FB6893FAA3F3BB60BB68B3FA83F318465D
S1130A501437BD4680BC704780B500AF0B20FFF74C
S1130A60ABFF0B20FFF790FF0120FFF7A5FF01204C
S1130A70FFF78AFF00BF80BD80B584B000AF034696
S1130A803960FB7101F060F8F860FB7905493A6858
S1130A9041F82320F86801F066F800BF1037BD461E
S1130AA080BD00BF2C01002080B584B000AF786009
S1130AB019E07868FFF7BEFFF8600122FB6802FACC
S1130AC003F3DB431A467B6813407B60094AFB68E7
S1130AD052F82330BB60BB68002B04D0FB68DAB249
S1130AE0BB68104698477B68002BE2D100BF1037E3
S1130AF0BD4680BD2C01002080B582B000AFFFF759
S1130B0085FF024645F2555313407B607868FFF732
S1130B106DFF7868FFF7C8FF00BF0837BD4680BD8A
S1130B2080B582B000AFFFF771FF02464AF6AA23F0
S1130B3013407B607868FFF759FF7868FFF7B4FFCC
S1130B4000BF0837BD4680BD80B487B000AFF860F1
S1130B50B9607A60FB6803F10473DA00BB6813447C
S1130B609B007B617B697A681A6000BF1C37BD46B5
S1130B7080BC704780B485B000AFF860B9607A601B
S1130B80FB681A68BB68DB431A407B681A43FB683E
S1130B901A6000BF1437BD4680BC704780B582B070
S1130BA000AF786039607B681C4A934202D07B684E
S1130BB01B4A934200BF3B681B78DA073B685B78AB
S1130BC09B0713431A463B685B681B0613433A684A
S1130BD0127A120213433A68527A12011A437B685A
S1130BE01A603B689B7A1B071A463B68DB7A1B0436
S1130BF01A433B68DB681B02134343F0807343F0E2
S1130C00B0037A68536078683B681B7C1A460021FD
S1130C10FFF79AFF00BF0837BD4680BD00100040B3
S1130C200014004080B584B000AFF860B96011468C
S1130C301A460B46FB711346BB71FB680B4A934281
S1130C4002D0FB680A4A934200BFF868BB79DB0014
S1130C501A460821FFF78EFFBB681A02FB791A4374
S1130C60FB68DA6100BF1037BD4680BD001000404C
S1130C700014004080B487B000AFF860B9607A60B7
S1130C80FB6803F10473DA00BB6813449B007B61C7
S1130C907B697A681A6000BF1C37BD4680BC704708
S1130CA080B485B000AF786039607B6803F1047369
S1130CB0DA003B6813449B00FB60FB681B68184622
S1130CC01437BD4680BC704780B485B000AF7860EF
S1130CD07B68002B03D07B68B3F5004F00BF7B68B3
S1130CE0B3FA83F3C3F11F03FB60FB6818461437A0
S1130CF0BD4680BC7047000080B400AF034BDB6C82
S1130D001B0EDBB21846BD4680BC7047B081E00FB5
S1130D1080B400AF034BDB6C1B0CDBB21846BD4642
S1130D2080BC7047B081E00F80B582B000AFFFF7A0
S1130D30EFFF03464A2B04D0792B02D0482B23D053
S1130D4024E0154B1B699BB21B029BB203F47C533A
S1130D50FB80114B9B691B091B0103F0F0039AB242
S1130D60FB881343FB800C4BDB691B0903F00F0367
S1130D709AB2FB881343FB80FB88B3F5017F01D350
S1130D80064B04E0064B02E0054B00E00023184646
S1130D900837BD4680BD00BFD0FF0FE000366E01AE
S1130DA00048E80180B584B000AF78600123FB609F
S1130DB0FFF7BAFF02467B68934204D80023FB6026
S1130DC00023BB600BE0FFF7AFFF03465B007A68CC
S1130DD09A4202D80123BB6001E00223BB60FA6897
S1130DE01E210848FFF746FF064B5B6823F4807218
S1130DF0BB681B02034913434B6000BF1037BD4659
S1130E0080BD00BF00800C4080B582B000AF1E21C1
S1130E100448FFF745FF78607B6818460837BD46ED
S1130E2080BD00BF00800C4080B582B000AF214B74
S1130E305B6903F4E063B3F5007F1CD0B3F5007F76
S1130E4005D8002B25D0B3F5807F1FD02AE0B3F559
S1130E50C06F24D0B3F5E06F1ED0B3F5407F21D12D
S1130E60FFF74AFF0346122B02D9134B7B601CE0A9
S1130E70124B7B6019E0FFF73FFF0346122B02D9A8
S1130E800F4B7B6011E00F4B7B600EE00E4B7B60E1
S1130E900BE00E4B7B6008E00D4B7B6005E00D4BD7
S1130EA07B6002E000237B6000BF7B681846083744
S1130EB0BD4680BD00800C40804F120040420F00B0
S1130EC040B56400C0CF6A00C0D8A700809FD50099
S1130ED0406F4001003FAB0180B582B000AF0D48C8
S1130EE000F0D4FB0346FB70FB78072B05D0092BDD
S1130EF007D1FFF795F9786006E0FFF795FF786072
S1130F0002E000237B6000BF7B6818460837BD46BB
S1130F1080BD00BF06000E0080B485B000AF7860CD
S1130F203960204B5B6803F00703FB60FB68012B0F
S1130F3001D9042B02D10023FB7202E00123FB72CE
S1130F4000BF7B68184A934207D9FB7A002B01D073
S1130F50052300E00423FB6016E07B68124A9342F9
S1130F600BD87B68114A934207D9FB7A002B01D036
S1130F70032300E00123FB6006E0FB7A002B01D091
S1130F80022300E00023FB60064B5B6823F00702AA
S1130F900449FB6813434B6000BF1437BD4680BC53
S1130FA0704700BF00000C400048E8010024F40032
S1130FB080B582B000AF0E4BDB6B002B14BF012356
S1130FC00023FB710A4B41F67132DA63FFF71EF915
S1130FD0034600211846FFF79FFFFB79002B02D040
S1130FE0034B0022DA6300BF0837BD4680BD00BF53
S1130FF000000C4080B584B000AF786039600C4BC1
S1131000DB6B002B14BF01230023FB73084B41F659
S11310107132DA6339687868FFF77EFFFB7B002B57
S113102002D0034B0022DA6300BF1037BD4680BDF7
S113103000000C4090B585B000AF78600023BB6021
S11310407B68344A934203D0334A934200D000E091
S113105000BF786800F01AFB0346FB607B682D4AEA
S1131060934203D02C4A934206D00CE02B4B9B6A4C
S113107003F00303FB6006E0284B9B6A9B0803F024
S11310800303FB6000BFFB68032B39D801A252F8AD
S113109023F000BFCB100000A5100000AD1000002D
S11310A0B5100000FFF74CF9B8602DE0FFF758F9D0
S11310B0B86029E0FFF790F80446FFF7A5FE034661
S11310C0013324FA03F3BB601EE00023BB607B689A
S11310D0104A934203D07B680F4A934213D10F4BBB
S11310E09A6A7B680B498B4201D1102300E01423D8
S11310F022FA03F3002B06D0FFF72AF9B86002E0C6
S11311000023BB6000E000BFBB6818461437BD462F
S113111090BD00BF02001C0003001E0000800C40B4
S113112080B483B000AF7860094B5B6D03F00103BA
S1131130002B07D100BF064B1A6D7B681340002BB0
S1131140F9D100E000BF0C37BD4680BC704700BF3A
S113115000800C4080B582B000AF104800F096FAD1
S11311600346FB70FB78032B07D0092B09D0022B15
S11311700BD1FFF7F5F878600AE0FFF7E1F8786043
S113118006E0FFF74DF8786002E000237B6000BFC3
S11311907B6818460837BD4680BD00BF072324007E
S11311A080B400AF00BFBD4680BC704780B400AFC0
S11311B000BFBD4680BC704790B585B000AF786075
S11311C039607B681B0903F00F03FB60FB68013B7C
S11311D0082B00F2F48001A252F823F0011200005F
S11311E0BF130000BF13000035120000BF1300003E
S11311F0BF1300005D120000A91200006B13000071
S11312003B68002B02D03B68082B00BFFFF7D0FEE1
S11312106D4B1B6823F4E0323B68013B9B036A4936
S113122013430B60FEF7D8FFB8600021B868FFF7DE
S1131230E1FEC5E03B68002B03D03B68B3F5007FBB
S113124000BF3868FFF740FD38605F4B9B6823F0B0
S11312500F025D493B6813438B60B1E03B68002B90
S113126003D03B68B3F5007F00BFFFF7A1FEFEF794
S1131270D7FF02463B68B2FBF3F31846FFF792FD33
S11312803868FFF721FD38604F4B5B6823F00F028D
S11312904D493B6813434B60FEF79EFFB860002145
S11312A0B868FFF7A7FE8BE07B68484A93421ED0DC
S11312B0464A934203D8464A934207D054E0454AEB
S11312C0934225D0444A93423ED04DE00420FFF798
S11312D027FF3868FFF7F8FC38603B4B9B6E23F020
S11312E0F0023B681B01384913438B663CE0042041
S11312F0FFF716FF3868FFF7E7FC3860324B9B6E48
S113130023F470623B681B022F4913438B662BE066
S11313103B680F2B02D93B68802B00BF0420FFF7EA
S1131320FFFE3868FFF7D0FC3860274B9B6E23F430
S113133040541020FFF7C8FC02463B689B1A1B036D
S1131340214A234393660FE00420FFF7E9FE38683F
S1131350FFF7BAFC38601C4B9B6E23F003021A495A
S11313603B6813438B6600BF2AE07B681B4A9342A9
S113137003D01B4A934210D020E04020FFF7D0FE58
S11313803868FFF7A1FC38600F4B1B6F23F0030292
S11313900D493B6813430B6710E04020FFF7C0FE84
S11313A03868FFF791FC3860074B1B6F23F030025D
S11313B03B681B01044913430B6700BF00E000BFF7
S11313C000BF1437BD4690BD00800C408026160037
S11313D0801612008000280080062C009007180058
S11313E090171A0080B586B000AF78600B46FB708A
S11313F000233B617B681B0A03F00F03013B092BAD
S113140045D801A252F823F0451400004B14000003
S1131410311400008F1400008F14000051140000D8
S11314205B1400008F1400008F140000651400008A
S1131430194B7B61194800F03DF803461846FFF745
S1131440B1FC12E0164B7B610FE0164B7B610CE0A4
S1131450154B7B6101233B6107E0144B7B61102337
S11314603B6102E0124B7B6100BF7B681B0B03F006
S11314701F03FB603B69002B02D03869FFF750FE65
S1131480FB781A46F9687869FFF7F4FB00E000BFBF
S11314901837BD4680BD00BF40800C4000430200A9
S11314A008800C4044800C4058800C4060800C4004
S11314B078800C4090B585B000AF78607B6803F409
S11314C07813B3F5C01F00F0AB80B3F5C01F1AD872
S11314D0B3F5602F00F0BF80B3F5602F08D8B3F5E3
S11314E0003F3CD0B3F5802F2DD0002B27D0BEE099
S11314F0B3F5901F3CD0B3F5B01F47D0B3F5801FB0
S113150000F0AD80B3E0B3F5101F00F0AC80B3F58C
S1131510101F0AD8B3F5E01F25D0B3F5F01F7AD019
S1131520B3F5D01F00F08980A1E0B3F5281F4ED099
S1131530B3F5301F62D0B3F5201F35D097E0FEF726
S11315406FFEF86096E0FEF76BFEF8604C4B9B680C
S113155003F00F03FA6822FA03F3FB608AE0FEF754
S11315603BFEF86086E04748FFF764FDF86081E0E1
S11315704448FFF75FFDF860414B9B6E1B0903F085
S11315800F03FA6822FA03F3FB6073E03D48FFF7A8
S113159051FDF8603A4B9B6E1B0A03F00F03FA6887
S11315A022FA03F3FB6065E03648FFF743FDF86079
S11315B0334B9B6E1B0B03F003041020FFF784FBDB
S11315C003462344FA6822FA03F3FB6052E02D48F1
S11315D0FFF730FDF8602A4B9B6E1B0B03F00303EF
S11315E0FA6822FA03F3FB60254BDB6F03F0070371
S11315F00133FA68B2FBF3F3FB603BE02148FFF7E9
S113160019FDF8601E4B9B6E03F00303FA6822FA7F
S113161003F3FB602EE01C48FFF70CFDF86029E0A3
S11316201948FFF707FDF860154B1B6F03F0030320
S1131630FA6822FA03F3FB601CE01348FFF7FAFC94
S1131640F8600F4B1B6F1B0903F00303FA6822FABF
S113165003F3FB600EE0FFF73FFCF8600AE0FFF7DE
S1131660E3FBF86006E0FFF775FDF86002E0002395
S1131670FB6000BFFB6818461437BD4690BD00BF31
S113168000800C4002001C0003001E0080B485B0E2
S113169000AF78600123FB737B6803F00F03BB602A
S11316A0BB68013B062B00F2938001A252F823F0A1
S11316B0CD160000031700003F170000D1170000EB
S11316C0D11700007B1700009D170000454BDB6A13
S11316D003F47053B3F5805F09D0B3F5005F03D012
S11316E0B3F5006F06D008E00223FB7308E0032380
S11316F0FB7305E00423FB7302E00523FB7300BFC7
S113170069E0384B9B6A03F00303022B06D0032BDA
S113171007D0012B08D10323FB730FE00223FB73D3
S11317200CE00623FB7309E02E4B9B6A03F4803321
S1131730002B02D00A23FB7300E000BF4BE0294BCF
S11317409B6A03F00C03082B06D00C2B07D0042B48
S113175008D10323FB730FE00223FB730CE0062381
S1131760FB7309E01F4B9B6A03F48013002B02D028
S11317700A23FB7300E000BF2DE01A4B1B6803F043
S11317808053002B03D0B3F1805F03D023E0072301
S1131790FB7302E00923FB7300BF1CE0114BDB6AFF
S11317A003F46033B3F5803F08D0B3F5003F08D0AD
S11317B0B3F5004F08D10923FB7308E00223FB7340
S11317C005E00323FB7302E00123FB7300BF02E087
S11317D00023FB7300BFFB7B18461437BD4680BC57
S11317E0704700BF00800C4080B588B000AF7860BF
S11317F00B46FB700323FB610323FB7600233B6151
S11318007B6803F00F03FB60FB68013B062B00F2CF
S11318102C8101A252F823F035180000131900009E
S1131820131900006B1A00006B1A0000D91900008C
S1131830031A0000FB78023B082B00F2188101A276
S113184052F823F069180000731800007D18000096
S1131850BF1800006F1A00006F1A00006F1A000012
S11318606F1A00006F1A00000423FB610023FB764B
S113187031E00323FB610123FB762CE00223FB61AF
S11318800223FB76FFF750FA034601331846FFF7AD
S113189089FAFEF745FD0246784B9A4206D9784B01
S11318A01B68774A43F06003136014E0744B1B68B1
S11318B023F06003724A43F0200313600BE001231A
S11318C0FB610323FB76FFF72FFA03460133184627
S11318D0FFF768FA00BFFB7E01220121184600F0E1
S11318E0D5F8FFF765FBFFF75BFC654AFB695362BC
S11318F06448FFF7DFFD03461846FFF753FAFEF787
S11319006BFCB8600021B868FFF774FBFFF74EFC6E
S1131910B0E0FB78013B092B00F2AB8001A252F846
S113192023F000BF4D190000531900006319000093
S1131930731A0000731A000073190000731A000070
S1131940731A0000731A00008F19000000237B61D2
S113195022E001220121002000F098F802237B619B
S11319601AE001220121012000F090F801237B619B
S113197012E0FEF731FCB860B868FFF713FA0122F1
S113198004214148FFF776F903237B6104E0002337
S11319907B6101233B6100BFFB68022B0DD1384BF7
S11319A09B6A23F4803323F003037A691A433B6967
S11319B01B04334913438B625CE0314B9B6A23F471
S11319C0801323F00C037A6992001A433B691B05C8
S11319D02B4913438B624DE0FB78072B02D0092B74
S11319E007D047E0264B1B68254A23F08053136039
S11319F006E0234B1B68224A43F08053136000BF68
S1131A0038E0FB78032B14D0092B22D0022B00D012
S1131A1030E001220121002000F038F8184B402268
S1131A205A6200BF164BDB6A03F48033002BF9D0F3
S1131A301AE001220121012000F028F8104B602255
S1131A405A6200BF0E4BDB6A03F40033002BF9D05B
S1131A500AE00B4B20225A6200BF094BDB6A03F4F5
S1131A600043002BF9D000BF04E000BF02E000BF38
S1131A7000E000BF2037BD4680BD00BF0048E8013C
S1131A8000800C400043020040800C4080B586B0CA
S1131A9000AF0346FB710B46BB7113467B71FB79A8
S1131AA0042B48D801A252F823F000BFF91A000011
S1131AB0EB1A0000CF1A0000C11A0000DD1A000062
S1131AC001233B610223FB6001237B611DE00423AE
S1131AD03B610823FB6003237B6116E010233B6119
S1131AE02023FB6005237B610FE040233B618023BF
S1131AF0FB6007237B6108E04FF480733B614FF484
S1131B000073FB6009237B6100BFBB79002B0ED0FF
S1131B100B4A3B6913627B79002B0DD000BF7969B6
S1131B200848FFF7BDF80346002BF8D004E0044A48
S1131B30FB68136200E000BF1837BD4680BD00BFDC
S1131B4000800C402C800C4080B483B000AFEFF3D5
S1131B5010833B603B687B6072B67B6818460C3729
S1131B60BD4680BC704780B483B000AF78607B68AA
S1131B70002B00D162B600BF0C37BD4680BC704755
S1131B8080B487B000AFF860B9607A60FB6803F195
S1131B900473DA00BB6813449B007B617B697A6839
S1131BA01A6000BF1C37BD4680BC704780B485B046
S1131BB000AFF860B9607A60FB681A68BB68DB4301
S1131BC01A407B681A43FB681A6000BF1437BD468D
S1131BD080BC704780B483B000AF03463960FB71AA
S1131BE0FB79002B0DD0FB79012B0AD0FB79022B5A
S1131BF007D0FB79032B04D0FB79042B01D0FB79AC
S1131C00052B01223B6802FA03F30749FA791846C7
S1131C101346DB0013449B000B441433186000BFCD
S1131C200C37BD4680BC70470060004080B483B070
S1131C3000AF03463960FB71FB79002B0DD0FB79B3
S1131C40012B0AD0FB79022B07D0FB79032B04D09C
S1131C50FB79042B01D0FB79052B01223B6802FAA6
S1131C6003F30749FA7918461346DB0013449B0033
S1131C700B441033186000BF0C37BD4680BC70475E
S1131C800060004080B483B000AF03460A46FB7195
S1131C901346BB71FB79002B0ED0FB79012B0BD0C3
S1131CA0FB79022B08D0FB79032B05D0FB79042B9D
S1131CB002D0FB79052B02D1BB79032B00BF0C4961
S1131CC0FA791346DB0013449B000B441B6823F092
S1131CD00301BB790648FA7919431346DB00134420
S1131CE09B000344196000BF0C37BD4680BC70479D
S1131CF00060004080B586B000AFB9607A601A46D3
S1131D000346FB731346BB7300237B61FB7B002BF1
S1131D100DD0FB7B012B0AD0FB7B022B07D0FB7B76
S1131D20032B04D0FB7B042B01D0FB7B052B7B68AE
S1131D30072B0ED87B689B00072202FA03F1FA7B7B
S1131D407B689B0002FA03F31A461948FFF72EFF3B
S1131D5010E07B68083B7B617B699B00072202FAE9
S1131D6003F1FA7B7B699B0002FA03F31A461148DC
S1131D70FFF71CFFBB7B1A4679680F48FFF700FF8B
S1131D8097F820301A4679680C48FFF7F9FE0122CB
S1131D907B689A400A4BC3F81C2197F824301A46F2
S1131DA079680848FFF7ECFE00BF1837BD4680BDD0
S1131DB00061004004610040086100400C61004083
S1131DC0006000401061004080B584B000AFB9608D
S1131DD07B600346FB731346BB73FB7B002B0DD068
S1131DE0FB7B012B0AD0FB7B022B07D0FB7B032B55
S1131DF004D0FB7B042B01D0FB7B052BBB7B002B8E
S1131E000DD07B68002B05D0FB7BB9681846FFF723
S1131E100DFF04E0FB7BB9681846FFF7DBFEBB68E7
S1131E20072B20D82D49FA7B1346DB0013449B0073
S1131E300B4404331A68BB689B000F2101FA03F3B7
S1131E40DB431340B97BBA68920001FA02F21146EF
S1131E502248FA7B19431346DB0013449B000344D6
S1131E600433196025E01D49FA7B1346DB00134453
S1131E709B000B4408331A68BB6803F18043083B9A
S1131E809B000F2101FA03F3DB4302EA0301BA7B4F
S1131E90BB6803F18043083B9B0002FA03F30F483D
S1131EA0FA7B19431346DB0013449B0003440833B5
S1131EB01960BB7B002B0DD17B68002B05D0FB7B0D
S1131EC0B9681846FFF7B2FE04E0FB7BB968184610
S1131ED0FFF780FE00BF1037BD4680BD00600040A4
S1131EE080B487B000AFF860B9607A60FB6803F132
S1131EF00473DA00BB6813449B007B617B697A68D6
S1131F001A6000BF1C37BD4680BC704780B582B0E4
S1131F1000AF78600B46FB70FB78002B01D000F01B
S1131F20EFFA7B681B7D184600F022F97B685B782A
S1131F309B007A6892781A437B689B681A437B6893
S1131F40DB681A437B68DB785B021A437B681B7986
S1131F509B021A437B685B795B031A437B689B791A
S1131F605B041A437B68DB791B041A437B685B7C44
S1131F709B053F4913430B607B681B78002118467F
S1131F8000F0D6F87B681B7E1A467B68DB7E5B001C
S1131F901A437B685B7E9B001A437B689B7E9B0194
S1131FA01A437B681B7F1B011A437B685B7F1B0200
S1131FB01A437B689B7F9B021A437B681B6A1A4304
S1131FC07B6893F824301B051A437B6893F825300B
S1131FD09B051A437B689B6A254913438B607B6886
S1131FE09B8D1A467B6893F83B309B021A437B68AF
S1131FF093F83C309B031A437B6893F83D309B0471
S11320001A437B6893F83E309B051A437B6893F828
S113201034305B001A437B6893F835309B001A43D5
S11320207B6893F83630DB001A437B6893F83730CB
S11320301B011A437B6893F838305B011A437B68B1
S113204093F839309B011A437B6893F83A30DB01EB
S113205007491343CB607B681B6B184600F0F2F909
S11320607B681A7C024B1A6100BF0837BD4680BDED
S113207000C0084080B588B000AF786039600023A4
S1132080FB610123BB613F237B617B68002B03D190
S11320902548FFF70FFA78603B68002B0CD03A68AC
S11320A07B689A4200BF07E0FB690133FB610122B0
S11320B0FB6902FA03F3BB613B68BA6902FB03F3F1
S11320C07A68B2FBF3F27B6901339A4202D9FB6965
S11320D0062BE9D93B68BA6902FB03F37A68B2FBC1
S11320E0F3F3013B7B61114B5B6823F47F2323F4FF
S11320F0E0633B61FB691A027B691B0313433A6982
S113210013433B61094A3B6953607B690133BA69F4
S113211002FB03F37A68B2FBF3F3FB60FB68184637
S11321202037BD4680BD00BF80062C0000C008409B
S113213080B584B000AF03460A46FB711346BB71F9
S11321400A4B1B6823F00303FB60FB79FA68134313
S1132150FB60064AFB681360BB79002B01D000F0DA
S113216081F900BF1037BD4680BD00BF00C00840E4
S113217080B485B000AF0346FB71094B5B6823F460
S11321804003FB60FB799B05FA681343FB60044A38
S1132190FB68536000BF1437BD4680BC704700BF66
S11321A000C0084080B485B000AF03460A46FB7106
S11321B01346BB71FB79002B0FD0012B00D01AE022
S11321C00F4B5B6823F00303FB60BB79FA6813438E
S11321D0FB600B4AFB6853600DE0094B5B6823F01E
S11321E07003FB60BB791B01FA681343FB60044A6C
S11321F0FB68536000BF00BF1437BD4680BC704706
S113220000C0084080B584B000AF78600023FB6054
S11322100AE0FB685B017A681344F968184600F029
S11322200BF8FB680133FB60FB680F2BF1D900BF8F
S11322301037BD4680BD000080B584B000AF786023
S113224039607B685B68B3F5C03F7B681B7A032BFE
S11322500AD13B680C2B07D03B680D2B04D03B689C
S11322600E2B01D03B680F2B00BF7B681B7A032B1E
S11322700AD13B68002B07D03B68012B04D03B6894
S1132280022B01D03B68032B00BF394B9A6B3B6890
S11322905B00032101FA03F3DB431340FB607B681B
S11322A01B7A1A463B685B0002FA03F3FA6813438D
S11322B0FB602F4AFB6893633B68D8B27B68D97B89
S11322C07B681A7C7B685B8A00F05AF87B685B7BCE
S11322D05A047B689B7B9B0413437A68D28A13431A
S11322E07A68128B1A437B685B681A437B685B7A53
S11322F0DB041F491A433B682C331B010B44043392
S11323001A607B68DA697B689B7A5B041A437B6892
S11323101B7B9B041A437B68DB7ADB0414491A4356
S11323203B681B010B4403F532731A603B68D8B257
S11323307B68998A7B685B8B1A4600F045F87B685A
S11323409B781A4639680B48FFF7CAFD7B685B78AF
S11323501A4639680848FFF7C3FD7B681B781A469C
S113236039680648FFF7BCFD00BF1037BD4680BD85
S113237000C008404CC0084054C0084018C0084081
S113238090B482B000AF0446084611461A4623466C
S1132390FB710346BB710B467B7113467B80BA7994
S11323A07B799B0142EA03017B885A030548FB7948
S11323B00A432C331B0103441A6000BF0837BD468F
S11323C090BC704700C0084080B485B000AF03469D
S11323D0FB710B46BB8013467B80194AFB792C3377
S11323E01B01134404331B6823F47F6323F00F039E
S11323F0FB60BB88FA681343FB60114AFB792C33FA
S11324001B0113440433FA681A600D4AFB791B015B
S1132410134403F532731B681B0C1B04FB607B889D
S1132420FA681343FB60064AFB791B01134403F566
S11324303273FA681A6000BF1437BD4680BC704717
S113244000C0084080B483B000AF7860044A7B6861
S113245003F00F03136300BF0C37BD4680BC704705
S113246000C0084080B400AF00BF0A4B1B6D03F0EE
S11324702003002BF9D1074B01225A6100BF054B01
S11324801B6D03F02003002BF9D100BFBD4680BCB7
S1132490704700BF00C0084080B400AF00BF0A4BC3
S11324A01B6D03F02003002BF9D1074B02225A6164
S11324B000BF054B1B6D03F02003002BF9D100BFB7
S11324C0BD4680BC704700BF00C0084080B400AF68
S11324D000BF0A4B1B6D03F02003002BF9D1074BFF
S11324E008225A6100BF054B1B6D03F02003002B2B
S11324F0F9D100BFBD4680BC704700BF00C0084092
S113250080B483B000AF384B0022DA64364B374ACC
S11325105A64354BDB68344A43F00103D36000BF8F
S1132520314B1B6D03F02003002BF9D12E4B0A22F3
S11325305A612D4B00221A602B4B00229A602A4BC1
S11325400022DA60284B00221A61274B00229A618C
S1132550254B00229A63244B0022DA63224B00228B
S11325605A6500237B6019E01F4A7B682C331B01EA
S1132570134400221A601C4A7B682C331B01134449
S1132580043300221A60184A7B681B01134403F5C4
S1132590327300221A607B6801337B607B680F2BE7
S11325A0E2D900237B600FE00F4A7B6840330021AF
S11325B042F833100C4A7B684033DB00134400229A
S11325C05A607B6801337B607B680F2BECD900BFBA
S11325D0054B1B6D03F02003002BF9D100BF0C3712
S11325E0BD4680BC704700BF00C00840FFFF7F00AD
S11325F080B485B000AF78601A4B5B69DBB29B0096
S1132600DBB203F03C03FB73164B1B699B09DBB283
S113261003F00303DAB2FB7B1343FB737B68FA7B9F
S11326209A70104B1B69DBB203F03F03DAB27B688C
S11326305A700C4B9B691B09DBB21B01FB73094BE2
S1132640DB691B09DBB203F00F03DAB2FB7B134334
S1132650FB737B68FA7B1A7000BF1437BD4680BCDD
S1132660704700BFD0FF0FE080B483B000AF786044
S11326707B680D4A93420BD07B680C4A934207D087
S11326807B680B4A934203D07B680A4A934201D188
S1132690012300E0002303F00103DBB218460C37EA
S11326A0BD4680BC704700BF0000014000040140EB
S11326B000080140000C014080B582B000AF786092
S11326C039607868FFF7D0FF3B681B7883F001031B
S11326D0DBB2002B02D07B6802225A607B680022A6
S11326E05A623B689B781A063B68DB781B041A43E2
S11326F03B689B799B021A433B68DB791B021343BB
S11327003A68127A13433A685278002A01D0402278
S113271000E0002213433A68527A002A01D0802252
S113272000E0002213433A68927A002A01D0202262
S113273000E0002213433A68D27A002A01D0102222
S113274000E0002213433A681279002A02D04FF4C1
S1132750005200E0002213433A685279002A02D062
S11327604FF0805200E0002213433A68127B002AA3
S113277001D0082200E000221A437B681A603B68FB
S11327801B78002B02D07B6801225A6000BF0837F7
S1132790BD4680BD80B586B000AFF860B9607A6090
S11327A0FB70BB68002B03D12448FEF783FEB8609E
S11327B0FB78202B0CD0202B02DC002B05D03AE038
S11327C0402B08D0602B09D035E010237B6108E052
S11327D008237B6105E006237B6102E004237B611F
S11327E000BFBB689A007B69796801FB03F35B084F
S11327F013443B617B697A6802FB03F33A69B2FBD9
S1132800F3F33B613B69043B3B613B699B013B61E7
S11328103A690B4B13403B61FB681B6823F0600271
S1132820FB681A60FB681A68FB781A43FB681A6035
S1132830FB683A695A611837BD4680BD408104007F
S1132840C0FF1F0080B485B000AF78600B46FB70FA
S11328507B68134A93420ED07B68124A93420AD093
S11328607B68114A934206D07B68104A934202D097
S11328707B680F4A934200BFFB78DB43FB60FB6835
S113288003F00503FB60FB685A007B68DA60FA78A2
S11328907B68DA6000BF1437BD4680BC704700BF58
S11328A000C0004000C4004000C8004000E00040F8
S11328B000E4004080B582B000AF786039607B6886
S11328C0294A93420ED07B68284A93420AD07B68F7
S11328D0274A934206D07B68264A934202D07B68FB
S11328E0254A934200BF786800F048F83B689B7C17
S11328F0002B05D07B681B6843F080427B681A601C
S11329003B68DB7C002B07D03B681B7D43F0100346
S1132910DBB21A467B689A653B685B7B1A463B6868
S11329201B8A13433A68D2891A437B685A603B680E
S113293059683B689A683B681B7B7868FFF72AFFF5
S11329403B685B7D002B05D07B681B6843F48032B9
S11329507B681A603B681B781A467B68DA6000BFA4
S11329600837BD4680BD00BF00C0004000C4004021
S113297000C8004000E0004000E4004080B483B0A0
S113298000AF78607B68244A93420ED07B68234A68
S113299093420AD07B68224A934206D07B68214A3C
S11329A0934202D07B68204A934200BF7B6840F682
S11329B0AA62DA607B6800221A607B6841F2050231
S11329C05A607B6800229A607B6800225A617B68A7
S11329D00022DA647B6841F6F9729A647B6800220B
S11329E05A657B680C4A934202D17B6800221A65BF
S11329F07B6800229A657B68084A934203D07B680F
S1132A00074A934202D17B680022DA6500BF0C3783
S1132A10BD4680BC704700BF00C0004000C40040F9
S1132A2000C8004000E0004000E4004080B483B0EF
S1132A3000AF786000BF7B681B6903F08003002B44
S1132A40F9D07B68DB69DBB218460C37BD4680BC25
S1132A50704780B483B000AF78600B46FB7000BF52
S1132A607B681B6903F04003002BF9D0FA787B687C
S1132A705A6300BF0C37BD4680BC704780B483B036
S1132A8000AF7860002318460C37BD4680BC704701
S1132A9080B483B000AF7860FEE780B483B000AF49
S1132AA0786039603B684FF400525A60002318463E
S1132AB00C37BD4680BC704780B483B000AF7860EB
S1132AC0012318460C37BD4680BC704780B485B0DE
S1132AD000AFF860B9607A60002318461437BD4629
S1132AE080BC704780B586B000AFF860B9607A608A
S1132AF000237B610FE000F07FF938613B69B3F19B
S1132B00FF3F0ED0BB685A1CBA603A69D2B21A7041
S1132B107B6901337B617B685A1E7A60002BEAD1A2
S1132B2000E000BF7B69002B02DC4FF0FF3300E0C4
S1132B307B6918461837BD4680BD000080B485B057
S1132B4000AF78600A4B1B68002B02D1084B094A7E
S1132B501A60074B1B68FB60054B1A687B681344BB
S1132B60034A1360FB6818461437BD4680BC70479F
S1132B706C010020A001002080B586B000AFF86091
S1132B80B9607A6000237B6109E0BB685A1CBA60B3
S1132B901B78184600F070F97B6901337B617A6910
S1132BA07B689A42F1DB7B6818461837BD4680BDC6
S1132BB080B483B000AF0346FB71FB7903F01F02BE
S1132BC0064997F907305B09012000FA02F241F83F
S1132BD0232000BF0C37BD4680BC704700E100E0F5
S1132BE080B483B000AF0346FB71FB7903F01F028E
S1132BF0074997F907305B09012000FA02F26033B4
S1132C0041F8232000BF0C37BD4680BC704700BF8D
S1132C1000E100E080B483B000AF786039607B6885
S1132C203A689A6400BF0C37BD4680BC704780B4D4
S1132C3083B000AF786039607B68DA6C3B68DB4353
S1132C401A407B68DA6400BF0C37BD4680BC70470D
S1132C5080B483B000AF786039607B68DA6C3B681D
S1132C601A437B68DA6400BF0C37BD4680BC7047EA
S1132C7080B500AF04210248FFF7D9FF00BF80BD33
S1132C8000E0004080B500AF04210248FFF7E0FFF8
S1132C9000BF80BD00E0004098B500AF144B1B6935
S1132CA003F08003002B20D0124B1B68072B1ADC87
S1132CB0114B1C680E48FFF7B9FE03461A460F4B2A
S1132CC01A550D4B1B6801330B4A1360094B1B68E3
S1132CD00133084A1360084B1B68082B05D1064BC7
S1132CE000221A6001E0FFF7C3FF00BF98BD00BFD8
S1132CF000E0004078010020740100207C010020E5
S1132D0080B483B000AF78607B68002B03D0064B9F
S1132D1001221A7002E0044B00221A7000BF0C3723
S1132D20BD4680BC704700BF84010020B0B588B0A8
S1132D3000AF01212948FEF755FB01212848FEF781
S1132D4051FB0123042200210420FFF73DF8002356
S1132D50012201210420FFF737F8224BFB61224BAB
S1132D603C1D1D460FCD0FC495E8030084E8030005
S1132D700123042207210520FFF726F801211B481F
S1132D80FEF730FB00233B713B1D1946F869FFF742
S1132D9091FDFB6940F203125A6504211148FFF7C3
S1132DA039FF1420FFF71CFF04210E48FFF750FFE2
S1132DB01420FFF7FDFE0521F869FFF743FD0C4BD6
S1132DC01B68986800230222002100F0A1FB094B34
S1132DD001221A7000BF2037BD46B0BD40810400F7
S1132DE000D2040000E00040CC480000003204009F
S1132DF0500000208501002080B582B000AF4FF064
S1132E00FF337B60184B1B7883F00103DBB2002B8C
S1132E1001D0FFF78BFFFEF797FE3860134B1B685A
S1132E20002B18DD124B1B68124AD35CDBB27B60AB
S1132E300F4B1B6801330E4A13600D4B1B68082BA4
S1132E4002D10B4B00221A60084B1B68013B074A56
S1132E501360FFF717FF3868FEF785FE7B68184696
S1132E600837BD4680BD00BF8501002078010020E1
S1132E70700100207C01002080B582B000AF0346C1
S1132E80FB71144B1B7883F00103DBB2002B01D0E0
S1132E90FFF74CFF104B1B78002B06D0FB790A2B55
S1132EA003D10D210D48FFF7D4FDFB7919460B48DA
S1132EB0FFF7CFFD084B1B78002B06D0FB790D2BB9
S1132EC003D10A210548FFF7C4FDFB7918460837EA
S1132ED0BD4680BD850100208401002000E0004043
S1132EE080B483B000AF0346FB71FB7903F01F028B
S1132EF0064997F907305B09012000FA02F241F80C
S1132F00232000BF0C37BD4680BC704700E100E0C1
S1132F1080B400AF034BDB6C1B0EDBB21846BD461E
S1132F2080BC7047B081E00F80B483B000AF03462B
S1132F303960FB71FB79002B0DD0FB79012B0AD092
S1132F40FB79022B07D0FB79032B04D0FB79042BEC
S1132F5001D0FB79052B01223B6802FA03F30749F0
S1132F60FA7918461346DB0013449B000B441833CC
S1132F70186000BF0C37BD4680BC7047006000403D
S1132F8080B584B002AF396011461A460346FB711E
S1132F900B46BB7113467B71BA79F8793B7C01937C
S1132FA07B79009313463A683968FEF7A3FE00BFA5
S1132FB00837BD4680BD000080B582B000AFFFF782
S1132FC0A7FF0346FB713B1D1846FFF711FBFB7976
S1132FD00F2B0AD93B79022B07D9064B1B6823F028
S1132FE05003044A43F01003136000BF0837BD4682
S1132FF080BD00BFC0800C4080B483B000AF786057
S11330007B680D4A93420BD07B680C4A934207D0ED
S11330107B680B4A934203D07B680A4A934201D1EE
S1133020012300E0002303F00103DBB218460C3750
S1133030BD4680BC704700BF000001400004014051
S113304000080140000C014080B483B000AF7860F8
S11330504FF6FF7318460C37BD4680BC704780B5E9
S113306082B000AF786039607868FFF7EDFF7B6865
S11330703A685A6200BF0837BD4680BD80B582B049
S113308000AF78600B46FB707868FFF7B5FFFB78FC
S1133090002B03D07B6801225A6002E07B68022285
S11330A05A6000BF0837BD4680BD80B483B000AF0E
S11330B0786039607B683A689A6100BF0C37BD4616
S11330C080BC704780B483B000AF786039607B689F
S11330D0DA683B681A437B68DA6000BF0C37BD4688
S11330E080BC704780B582B000AF78603960786882
S11330F0FFF7AAFF7B683A68DA6100BF0837BD466C
S113310080BD80B500AF03210420FFF70DFF00BF91
S113311080BD000080B500AF1E4800F0E1F9012138
S11331201D48FFF7C2FF00211B48FFF798FF1B4B08
S11331301B78DBB2002B0AD0194B1B78DBB2002BB7
S113314005D0FFF7DEFF174800F0CAF91AE0134B69
S11331501B78DBB2002B06D0134B01221A701348E4
S113316000F0BEF90EE00E4B1B78DBB2002B06D04C
S11331700F4B01221A700F4800F0B2F902E00E481A
S113318000F0AEF9054B00221A70054B00221A70AC
S113319000BF80BDE448000000000140860100201B
S11331A087010020F8480000880100200849000039
S11331B0890100201C4900003049000080B500AF9F
S11331C0114800F08DF901211048FFF76EFFFDF75B
S11331D011FB02460E4B1A600D4B1B68002B0ADBD9
S11331E00B4B1B68192B03DD0A4B01221A7002E0FA
S11331F0094B01221A70064B1B681946074800F058
S11332006FF900BF80BD00BF3C49000000040140CD
S1133210940100208A0100208B0100205049000005
S113322080B582B000AF0346FB71FB79092B02D055
S11332300A2B0FD01DE0114800F052F9002110486C
S1133240FFF70DFF01210E48FFF718FF0D4B012278
S11332501A700EE00C4800F043F900210848FFF70B
S1133260FEFE01210648FFF709FF084B01221A70F0
S113327000BF00BF0837BD4680BD00BF5C490000E9
S113328000000140860100207449000087010020ED
S113329080B500AF01210F48FEF7A4F801210E48C4
S11332A0FEF7A0F801210D48FEF79CF80122012148
S11332B00020FEF7EBFB01210948FEF793F80221F9
S11332C00848FEF791FA01210748FEF78BF800BF82
S11332D080BD00BF00D2040000520400006204005C
S11332E00043020002001C008016120080B582B068
S11332F002AF0023042202210420FEF765FD00230F
S1133300042203210420FEF75FFD0023012209218A
S11333100120FEF759FD002301220A210120FEF7B6
S113332053FDFDF799FB0D490920FDF7A5FB0B495A
S11333300A20FDF7A1FB01230093002301220921A8
S11333400120FFF71DFE01230093002301220A211F
S11333500120FFF715FE00BFBD4680BD21320000ED
S113336080B588B000AF07F1100300221A605A60DC
S11333709A601A7301233B7400233B740123FB7688
S11333800A23BB7407F1100319462148FFF794F987
S113339000211F48FFF763FE40F6AE211C48FFF7EB
S11333A0A1FE01211A48FFF780FE01211848FFF70A
S11333B089FE0220FFF794FD3B4600221A605A6002
S11333C09A601A7301233B7001233B700023FB7244
S11333D00A23BB703B4619460E48FFF76DF90021DE
S11333E00C48FFF73CFE4FF47A710A48FFF77AFE67
S11333F001210848FFF759FE01210648FFF762FE44
S11334000C20FFF76DFD00BF2037BD4680BD00BF17
S1133410000001400004014080B500AFFFF786FCC6
S11334200120FFF76DFC024800F05AF800BF80BD90
S11334308C49000080B500AFFFF72AFFFFF756FF65
S1133440FFF7EAFFFFF78CFF0020FDF783FA00BFC8
S113345080BD80B500AFFFF7AFFDFFF7EBFFFEE7E0
S113346008B5074B044613B10021AFF30080054BA8
S11334701868836A03B198472046FFF709FB00BF29
S1133480000000009449000070B500250C4E0D4C5E
S1133490A41BA410A54209D100F0C4FF00250A4EC4
S11334A00A4CA41BA410A54205D170BD56F82530C2
S11334B098470135EEE756F8253098470135F2E78D
S11334C0B4000020B4000020B4000020B8000020A4
S11334D003460244934200D1704703F8011BF9E705
S11334E00FB40A4B13B51C6824B1A36913B9204661
S11334F000F0ACF905AB049AA1682046019300F0F2
S113350069FB02B0BDE8104004B0704750000020D1
S11335102DE9F7431D46514B04461E680F4690465D
S113352026B1B36913B9304600F090F94C4B9C4274
S113353052D17468B8F1020F06D0B8F1010F00F24D
S11335408980002DC0F286802146304600F014F9AF
S1133550616B41B104F14403994202D0304600F05A
S11335606BFA002363630023A3616360A3891B06D2
S113357003D52169304600F05FFAA389B8F1020F40
S113358023F44A6323F00303A3815DD001AB6A46AD
S11335902146304600F0E4F9A3891843A0812DBBED
S11335A0009D284600F040FA074600284ED1DDF879
S11335B00090A9453CD14FF0FF30A38943F00203AA
S11335C0A3810023A36004F1470323602361012343
S11335D0636103B0BDE8F083224B9C4201D1B4681F
S11335E0A8E7214B9C4208BFF468A3E7002FD8D07A
S11335F0B36913B9304600F029F9B8F1010F08BFD7
S1133600A389276004BF43F00103A381A389C4E90C
S1133610047513F008001BD013F001004FF00003F1
S11336201FBF6D42A360A561184608BFA560D0E71F
S1133630484600F0F9F907460028BCD0A3894D4656
S113364043F08003A381D3E70020B6E7A946F5E75A
S1133650A060BEE74FF0FF30BBE700BF5000002082
S1133660B8490000D8490000984900008A892DE92A
S1133670F041054610070C4658D44B68002B05DC76
S11336800B6C002B02DC0020BDE8F081E66A002E02
S1133690F9D0002312F480522F68216A2B6032D0B3
S11336A0606DA3895A0705D56368C01A636B0BB1B3
S11336B0236CC01A00230246E66A216A2846B047F2
S11336C0431CA38906D129681D2948D8294ACA4020
S11336D0D60744D5002262602269D904226004D549
S11336E0421C01D12B6803B96065616B2F6000290E
S11336F0C9D004F14403994202D0284600F09CF951
S113370000206063C0E701232846B047411CC8D1AC
S11337102B68002BC5D01D2B01D0162B01D12F6097
S1133720B1E7A38943F04003A381ADE70F69002FFC
S1133730A9D0930718BF00230E6808BF4B69A6EBF6
S113374007080F608B60B8F1000F9CDD43463A46D2
S1133750216A2846A66AB047002806DCA38943F0FC
S11337604003A3814FF0FF308EE70744A8EB000825
S1133770E9E700BF0100402038B50B6905460C4657
S1133780DBB118B183690BB900F060F80C4B9C42B3
S113379009D16C68B4F90C307BB121462846BDE8E8
S11337A03840FFF763BF074B9C4201D1AC68F1E797
S11337B0054B9C4208BFEC68ECE7002038BD00BF15
S11337C0B8490000D849000098490000002310B50A
S11337D00446C0E90033836081814366C281C0E945
S11337E004338361194608225C30FFF771FE054BF0
S11337F024626362044BA362044BE362044B2363BD
S113380010BD00BF2D4100004F4100008741000062
S1133810AB410000014900F085B800BF79370000D2
S113382070B568254A1E55430E4605F1740100F033
S11338304FF9044640B10021C0E900160C30A060E5
S113384005F16802FFF744FE204670BD836910B598
S1133850044633BBC0E912330365124B124A1B689A
S11338608262984204BF0123836100F01FF8606004
S1133870204600F01BF8A060204600F017F8002254
S1133880E06004216068FFF7A1FF01220921A0681C
S1133890FFF79CFF02221221E068FFF797FF012344
S11338A0A36110BD9449000015380000F8B51B4B06
S11338B007461E68B36913B93046FFF7C7FF483699
S11338C0D6E90134013B03D5336833B13668F7E7F1
S11338D0B4F90C506DB16834F4E704213846FFF7AD
S11338E09FFF30600028F1D10C2304463B60204642
S11338F0F8BD0B4B6566C4E90055A560C4E9033502
S1133900C4E905550822294604F15C00FFF7E0FDEF
S1133910C4E90D55C4E91255E9E700BF9449000014
S11339200100FFFF2DE9F84380468946002600F197
S1133930480414B93046BDE8F883D4E90175013F61
S113394001D52468F5E7AB89012B07D9B5F90E3009
S1133950013303D029464046C84706436835EEE79D
S113396070B50E46B1F90E1096B0002914461D46E6
S113397007DA00232B60B3891A0610D44FF480634E
S11339800EE06A4600F0F8FC0028F2DB019A02F42B
S11339907042A2F500535A425A412A60EEE740238E
S11339A00020236016B070BD8B8973B59D07064651
S11339B00C4607D504F147032360236101236361A7
S11339C002B070BD01AB6A46FFF7CAFF0099054615
S11339D0304600F07DF848B9B4F90C309A05EFD4BC
S11339E023F0030343F00203A381E3E70D4BB36227
S11339F0A389206043F08003A381009B206163615D
S1133A00019B5BB1B4F90E10304600F0C7FC28B13D
S1133A10A38923F0030343F00103A381A3891D4376
S1133A20A581CDE715380000024B0146186800F067
S1133A304FB800BF5000002038B50546002943D0D8
S1133A4051F8043C0C1F002BB8BFE41800F0D6FC5E
S1133A501E4A1368104633B9636014602846BDE8F3
S1133A60384000F0CCBCA3420BD9216862189342C1
S1133A7001BF1A685B685218226063600460EDE756
S1133A8013465A680AB1A242FAD919685818A042D2
S1133A900BD120680144581882421960DED11068A5
S1133AA05268014419605A60D8E702D90C232B608C
S1133AB0D4E7206821188A4201BF116852680918A6
S1133AC0216062605C60C9E738BD00BF8C010020E2
S1133AD070B5CD1C25F0030508350C2D38BF0C2519
S1133AE0002D064601DBA94203D90C2333600020D4
S1133AF070BD00F083FC214A1468214691B9204C22
S1133B0023681BB9304600F001FB2060294630468B
S1133B1000F0FCFA431C24D10C233046336000F03F
S1133B206EFCE4E70B685B1B18D40B2B0FD90B60FE
S1133B30CC18CD50304600F062FC04F10B00231D7C
S1133B4020F00700C31AD3D05A42E250D0E74B68A2
S1133B508C4216BF636013600C46EBE70C46496861
S1133B60CCE7C41C24F00304A04205D0211A30463B
S1133B7000F0CCFA0130CFD02560DBE78C010020C7
S1133B8090010020936810B4013B002B936007DA86
S1133B909469A34201DB0A2902D110BC00F00ABBDC
S1133BA01368581C10601970084610BC7047F8B5AB
S1133BB006460F461446D518AC4201D1002007E052
S1133BC03A4614F8011B3046FFF7DCFF431CF3D1DF
S1133BD0F8BD00002DE9F04F9DB00C461746039345
S1133BE0064618B183690BB9FFF730FE7B4B9C4244
S1133BF057D17468A38918075DD52369002B5AD05F
S1133C000023099320238DF8293030234FF0010B32
S1133C108DF82A30B846454615F8013B0BB1252BE3
S1133C2054D1B8EB070A0BD053463A4621463046E6
S1133C30FFF7BDFF013000F0C280099B5344099394
S1133C4098F80030002B00F0BA8000234FF0FF32C8
S1133C50CDE90523049307938DF853301A93A846AE
S1133C60052218F8011B5E4800F0BAFB049B78BBE0
S1133C70D90644BF20228DF853201A0744BF2B22B3
S1133C808DF853202A782A2A2AD0A84600200A250B
S1133C90079A414611F8013B303B092B69D960B3BF
S1133CA024E0504B9C4201D1B468A3E74E4B9C42A4
S1133CB008BFF4689EE72146304600F0DFFA00288A
S1133CC09ED04FF0FF301DB0BDE8F08FA846A2E7AC
S1133CD0434A4546801A0BFA00F018430490BEE7A5
S1133CE0039A111D12680391002A01DB079204E074
S1133CF0524243F002030792049398F800302E2BAB
S1133D000ED198F801302A2B38D1039B08F1020810
S1133D101A1D1B680392002BB8BF4FF0FF330593A5
S1133D20324D032298F80010284600F059FB40B1A8
S1133D304023401B03FA00F0049B08F101080343ED
S1133D40049398F800100622294808F101078DF819
S1133D50281000F045FB002837D0264B1BBB039BE3
S1133D60073323F0070308330393099B4B44099358
S1133D7050E705FB0232012088468AE700230A2522
S1133D80194608F101080593404610F8012B303A12
S1133D90092A03D9002BC3D00591C1E705FB0121F2
S1133DA001238046F0E703AB00932246124B04A99B
S1133DB03046AFF30080B0F1FF3F8146D5D1A389EF
S1133DC05B063FF57EAF09987DE703AB009322467F
S1133DD0094B04A9304600F087F8ECE7B849000025
S1133DE0F8490000D849000098490000FE49000045
S1133DF0024A000000000000AF3B00002DE9F0473C
S1133E0091461F468A680B6906469342B8BF13461B
S1133E10C9F8003091F843200C46DDF8208012B137
S1133E200133C9F800302368990642BFD9F800303D
S1133E300233C9F80030256815F0060507D104F1EE
S1133E40190AE368D9F800209B1AAB4229DC94F8DC
S1133E5043302268003318BF012392062ED404F1A4
S1133E60430239463046C047013021D02368E56813
S1133E7003F00603042B18BF0025D9F800204FF0E7
S1133E80000908BFAD1AA368226908BF25EAE575D1
S1133E909342C4BF9B1AED181A344D451AD1002021
S1133EA008E00123524639463046C047013003D169
S1133EB04FF0FF30BDE8F0870135C2E73020E1184C
S1133EC081F843005A1C94F845102244023382F8C6
S1133ED04310C4E70123224639463046C047013027
S1133EE0E6D009F10109D8E72DE9F04301F1430CCB
S1133EF00C46097E85B06E291746064698460C9AEC
S1133F0000F0B38022D8632936D00AD8002900F003
S1133F10B980582900F0838004F1420584F84210E6
S1133F2032E0642901D06929F6D1206813680506B6
S1133F3003F104012AD51B681160002B03DA2D223A
S1133F405B4284F843206F480A2239E0732900F069
S1133F509D8008D86F2920D07029DDD1236843F0D3
S1133F602003236003E0752917D07829D4D178235E
S1133F70654884F8453055E0136804F14205191D7D
S1133F801B68116084F8423001238CE01B6810F038
S1133F90400F116018BF1BB2CFE713682568181DC6
S1133FA01060280601D51B6802E06806FBD51B8853
S1133FB06F2914BF0A2208225248002184F84310B2
S1133FC06568002DA560C0F29580216821F0040188
S1133FD02160002B3DD1002D40F08E806546082ADB
S1133FE00BD12368DB0708D5236962689A42DEBFD8
S1133FF0302305F8013C05F1FF35ACEB05032361E3
S1134000CDF800803B4603AA21463046FFF7F6FE72
S113401001304DD14FF0FF3005B0BDE8F083394891
S113402084F84510136821681D1D1B6815600A0675
S11340300BD5CA0744BF41F0200121601BB9226897
S113404022F0200222601022B7E74D0648BF9BB23F
S1134050EFE76546B3FBF2F102FB1133C35C05F8ED
S1134060013D0B460029F5D1B9E713682568181DF1
S11340706169106028061B6801D5196002E06A06B0
S1134080FBD51980002365462361B9E71368191D20
S113409011601D6862680021284600F0A1F908B18A
S11340A0401B606063682361002384F84330A7E702
S11340B023692A4639463046C0470130AAD02368CE
S11340C09B0713D4E068039B9842B8BF1846A3E744
S11340D001234A4639463046C04701309AD001355B
S11340E0E368039A9B1AAB42F2DCEBE7002504F188
S11340F01909F5E7002BACD1037804F1420584F8E3
S113410042306CE7094A00001A4A000038B500231F
S1134110054C054608462360FEF710FD431C02D1FA
S1134120236803B12B6038BD9801002010B50C46FC
S1134130B1F90E1000F064F90028ABBF636DA389D8
S11341401B1823F48053ACBF6365A38110BD2DE914
S1134150F0411F468B890546DB050C46164605D5FE
S113416002230022B1F90E1000F028F9A389324687
S113417023F48053A381B4F90E103B462846BDE8CE
S1134180F04100F069B810B50C46B1F90E1000F01A
S113419015F9431CA38915BF606523F4805343F4C8
S11341A08053A38118BFA38110BDB1F90E1000F094
S11341B0D3B80000F8B50E461446054618B1836915
S11341C00BB9FFF743FB214B9C422AD16C68A369CE
S11341D0A360A3891A072ED5236963B323692068D2
S11341E0F6B2C01A63693746834204DC2146284686
S11341F0FFF7C2FA28BBA3680130013BA360236820
S11342005A1C22601E706369834204D0A389DB07B1
S113421019D50A2E17D121462846FFF7ADFA90B1D9
S11342200FE00B4B9C4201D1AC68D0E7094B9C4298
S113423008BFEC68CBE72146284600F01FF80028A9
S1134240CCD04FF0FF373846F8BD00BFB849000066
S1134250D84900009849000038B50546084611467B
S11342600022054C22601A46FEF786FC431C02D14C
S1134270236803B12B6038BD98010020324B70B520
S11342801D6806460C4625B1AB6913B92846FFF7ED
S1134290DDFA2E4B9C420FD16C68B4F90C309AB203
S11342A015072CD4D00611D40922326043F0400300
S11342B0A3814FF0FF303EE0254B9C4201D1AC6816
S11342C0EBE7244B9C4208BFEC68E6E7510712D5A4
S11342D0616B41B104F14403994202D03046FFF7C7
S11342E0ABFB00236363A38923F02403A38100238E
S11342F0636023692360A38943F00803A3812369CE
S11343004BB9A38903F42073B3F5007F03D021468E
S11343103046FFF749FBA28912F001030CD00023B9
S1134320A36063695B42A361236953B9B4F90C3098
S113433013F08000BAD170BD920758BF6369A360BF
S1134340F2E70020F7E700BF50000020B849000062
S1134350D84900009849000038B50023054C0546AB
S113436008462360FEF78AFB431C02D1236803B18D
S11343702B6038BD9801002038B50023064C054653
S1134380084611462360FEF788FB431C02D12368CC
S113439003B12B6038BD00BF9801002038B500235D
S11343A0054C054608462360FEF786FB431C02D1F4
S11343B0236803B12B6038BD9801002038B5054649
S11343C0084611460022054C22601A46FEF77EFB81
S11343D0431C02D1236803B12B6038BD980100202F
S11343E010B5C9B202449042034601D1002303E050
S11343F01C7801308C42F6D1184610BD70477047C6
S113440038B50546084611460022054C22601A4676
S1134410FEF768FB431C02D1236803B12B6038BD4F
S113442098010020F8B500BFF8BC08BC9E46704750
S1134430F8B500BFF8BC08BC9E46704700000000F9
S1134440000000000101010100000000FF00000065
S1134450FF000000FF000000FF000000FF0000005C
S1134460FF00000000000000090000000A00000036
S11344700B0000000C00000000000000070000001A
S1134480070700003D0000000000000000000000DD
S11344900000000100000000000000000000000017
S11344A00000000000000000000000000000040004
S11344B002020000000000000000000000000000F4
S11344C000010000000001000102030000000000E0
S11344D000000000000000000000000000000000D8
S11344E000000000000000000000000000000000C8
S11344F000000000000000000000000000000000B8
S113450000000000000000000000000000000000A7
S11345100000000000000000000000000000000097
S11345200000000000000000000000000000000087
S11345300000000000000000000000000000000077
S11345400000000000000000000000000000000067
S11345500000000000000000000000000000000057
S11345600000000000000000000000000000000047
S11345700000000000000000000000000000000037
S11345800000000000000000000000000000000027
S11345900000000000000000000000000000000017
S11345A00000000000000000000000000000000007
S11345B000000000000000000000000000000000F7
S11345C000000000000000000000000001010100E4
S11345D000000000000000000100000001000000D5
S11345E03700000000200E0000000000010101005F
S11345F000000000000000000100000001000000B5
S11346003700000000200E0000000000010101003E
S11346100000000000000000010000000100000094
S11346203700000000200E0000000000010101001E
S11346300000000000000000010000000100000074
S11346403700000000200E00000000000000000001
S11346500000000000000000000000000000000056
S11346600000000000000000000000000000000046
S11346700000000000000000000000000000000036
S11346800000000000000000000000000000000026
S11346900000000000000000000000000000000016
S11346A00000000000000000000000000000000006
S11346B000000000000000000000000000000000F6
S11346C000000000000000000000000000000000E6
S11346D000000000000000000000000000000000D6
S11346E000000000000000000000000000000000C6
S11346F000000000000000000000000000000000B6
S113470000000000000000000000000000000000A5
S11347100000000000000000000000000000000095
S11347200000000000000000000000000000000085
S11347300000000000000000000000000000000075
S11347400000000000000000000000000000000065
S11347500000000000000000000000000000000055
S11347600000000000000000000000000000000045
S11347700000000000000000000000000000000035
S11347800000000000000000000000000000000025
S11347900000000000000000000000000000000015
S11347A00000000000000000000000000000000005
S11347B000000000000000000000000000000000F5
S11347C000000000000000000000000001010000E3
S11347D00000000000000000010000000F000000C5
S11347E0370000000020000000000000010100006C
S11347F00000000000000000010000000F000000A5
S1134800370000000020000000000000010100004B
S11348100000000000000000010000000F00000084
S1134820370000000020000000000000010100002B
S11348300000000000000000010000000F00000064
S1134840370000000020000000000000000000000D
S11348500000000000000000000000000000000054
S11348600000000000000000000000000000000044
S11348700000000000000000000000000000000034
S11348800000000000000000000000000000000024
S11348900000000000000000000000000000000014
S11348A00000000000000000000000000000000004
S11348B000000000000000000000000000000000F4
S11348C000000000000000000000000005000000DF
S11348D00000000000C201000005000000100000FC
S11348E00000000054696D657230204954206361F2
S11348F06C6C65640A000000646F75626C652070FE
S1134900726573730A000000627574746F6E2031EF
S113491020707265737365640A00000062757474B4
S11349206F6E203220707265737365640A00000034
S1134930756E646566696E6965640A0054696D65BF
S113494072312049542063616C6C65640A00000074
S1134950736C696465722025640000006275747468
S11349606F6E203120726973696E672065646765B4
S113497000000000627574746F6E203220726973D7
S1134980696E6720656467650000000048656C6CAB
S11349906F210A0054000020000000000000000005
S11349A00000000000000000000000000000000003
S11349B000000000000000000000000000000000F3
S11349C000000000000000000000000000000000E3
S11349D000000000000000000000000000000000D3
S11349E000000000000000000000000000000000C3
S11349F00000000000000000232D302B2000686C14
S1134A004C006566674546470030313233343536ED
S1134A103738394142434445460030313233343526
S1134A20363738396162636465660000000000004F
S10B4A30ECB6FF7F0100000059
S1134A38006CDC0200800000809FD50001000000AB
S1134A480100000001000000010000000100000056
S1134A580100000001000000010000000100000046
S1134A680100000001000000010000000100000036
S1134A780100000001000000010000000100000026
S1134A885400002000000000B8490000D849000084
S1134A989849000000000000000000000000000029
S1134AA800000000000000000000000000000000FA
S1134AB800000000000000000000000000000000EA
S1134AC800000000000000000000000000000000DA
S1134AD800000000000000000000000000000000CA
S10F4AE80000000001010000DD000000DF
S90301916A
