S0190000486F6D65776F726B5F76657273696F6E5F322E73333799
S11300000000022091010000BD010000BD010000BC
S1130010BD010000BD010000BD010000BD010000E4
S1130020BD010000BD010000BD010000BD010000D4
S1130030BD010000BD010000BD010000BD010000C4
S1130040BD010000F90A00006D3B0000BD01000085
S1130050BD010000BD010000BD010000BD010000A4
S1130060BD010000BD010000BD010000210B000026
S1130070F13B0000BD010000BD010000BD01000016
S1130080BD01000011070000BD010000BD0100001A
S113009041380000BD010000BD010000BD010000A9
S11300A0BD010000BD010000BD010000BD01000054
S11300B0BD010000BD010000BD010000BD01000044
S11300C0BD010000BD010000BD010000BD01000034
S11300D0BD010000BD010000BD01000010B5054CCC
S11300E0237833B9044B13B10448AFF300800123E0
S11300F0237010BD84010020000000006072000025
S113010008B5034B1BB103490348AFF3008008BD96
S1130110000000008801002060720000154B002BD5
S113012008BF134B9D46A3F5803A00218B460F462A
S11301301348144A121A05F08BFC0F4B002B00D005
S113014098470E4B002B00D0984700200021040054
S11301500D000D48002802D00C48AFF3008005F0D4
S113016053FC2000290003F09BFF05F039FC00BF7D
S11301700000080000000220000000000000000051
S113018084010020A40A00200000000000000000F8
S1130190064880470649074A074B9A42BEBF51F8B2
S11301A0040B42F8040BF8E7FFF7B8FF350300002F
S11301B06C7200000000002084010020FEE700BFF4
S11301C080B400AF034BDB6C1B0EDBB21846BD469C
S11301D080BC7047B081E00F80B582B000AF00F002
S11301E01FF87860074B5B6803F00F037A6822FA04
S11301F003F37B60044A7B6813607B681846083706
S1130200BD4680BD00800C400800002080B400AFD3
S1130210024B1846BD4680BC704700BF006CDC0230
S113022080B582B000AF334BDB6A03F47053B3F58F
S1130230805F0AD0B3F5005F03D0B3F5006F08D038
S11302400BE02D4B1B687B6047E04FF400437B6061
S113025043E02A4B1B687B603FE0264BDB6803F4DA
S1130260E063B3F5007F1BD0B3F5007F05D8002B06
S113027024D0B3F5807F16D02BE0B3F5806F09D07E
S1130280B3F5A06F03D0B3F5407F06D021E01C4B3B
S11302907B6021E01B4B7B601EE01B4B7B601BE003
S11302A01A4B7B6018E0FFF78BFF0346122B02D931
S11302B0174B7B6010E0174B7B600DE0FFF780FF6E
S11302C00346122B02D9144B7B6005E0134B7B6071
S11302D002E000237B6000BF00BF064B1B689B0B42
S11302E003F0070301337A68B2FBF3F318460837C7
S11302F0BD4680BD00800C400400002000000020AA
S1130300003FAB01406F4001809FD500C0D8A700DB
S113031040B56400C0CF6A00804F120040420F0015
S113032080B400AF024B1B681846BD4680BC7047C2
S11303300000002080B400AF00BFBD4680BC704701
S113034080B400AF4FF400431846BD4680BC7047EC
S113035080B400AF4FF47A731846BD4680BC704732
S113036080B400AF024B1B681846BD4680BC704782
S11303700400002080B483B000AF0346FB71FB7916
S113038003F01F02064997F907305B09012000FAC0
S113039002F241F8232000BF0C37BD4680BC7047F1
S11303A000E100E080B500AFFFF716FF00BF80BD9D
S11303B080B400AF024B1B6A1846BD4680BC704730
S11303C000C0084080B400AF024B9B6A1846BD468B
S11303D080BC704700C0084080B483B000AF786030
S11303E0054A7B6803F00F03A03352F82330184604
S11303F00C37BD4680BC704700C0084080B483B051
S113040000AF7860034A7B68536400BF0C37BD4675
S113041080BC704700C0084080B483B000AF7860EF
S1130420054BDA6C04497B681343CB6400BF0C377B
S1130430BD4680BC704700BF00C0084080B483B094
S113044000AF7860054BDA6C7B68DB4303491340EB
S1130450CB6400BF0C37BD4680BC704700C0084069
S113046080B483B000AF064BDB6C7B60044B1A6C2A
S11304707B68134018460C37BD4680BC704700BFEC
S113048000C0084080B500AFFFF78CFF05211120A4
S113049001F03CFC0321124801F038FC0121114811
S11304A001F034FC0121104801F02EFA01210F481B
S11304B001F02AFA01210E4801F026FA01210D4823
S11304C001F022FA01210C4801F01EFA01210B4827
S11304D001F01AFA0121094801F000F900BF80BDBA
S11304E002001C0003001E004081040000D204002E
S11304F00092040000A204000043020080062C00C5
S113050080B500AF0021022001F06CFE0023002220
S11305100821022001F008FF002300220921022003
S113052001F002FF002300220A21022001F0FCFE58
S1130530002300220B21022001F0F6FE00BF80BD43
S113054080B500AF002300220021094800F0FCFD23
S1130550002300220021074800F0F6FD0649044864
S113056000F0AEFD0449034800F0AAFD00BF80BDC1
S11305700010004000140040086A000080B584B0F8
S113058000AF0346FB715B4B1B78002B03D00121AA
S1130590594802F08FFAFB79002B37D002F050FD56
S11305A000BFFFF705FF034603F01003002BF8D14B
S11305B002F060FD0421002002F030FB0021002045
S11305C002F0C4FB4D4802F0F1FB4D4B1B881A4668
S11305D03721082002F0CCFC494B5B881A463721AE
S11305E0092002F0C5FC464B9B881A4637210A2095
S11305F002F0BEFC424BDB881A4637210B2002F086
S1130600B7FC4FF48030FFF719FF1EE002F018FD2D
S113061000BFFFF7CDFE034603F01003002BF8D113
S11306204FF48030FFF7EAFE02F024FD4021002061
S113063002F0F4FA0321002002F088FB314802F0B2
S1130640B5FB4FF48030FFF7E7FE1120FFF792FE71
S113065002F0DCFC274B1B78002B47D0254B0022F3
S11306601A7000BF284B1B6A03F00203002BF9D059
S11306700023FB730023BB7319E0BB7B234AD35CC9
S1130680002B11D0FB7B032B0BD8BB7B1846FFF749
S1130690A3FE03469AB2FB7B013A91B2184A22F8B0
S11306A01310FB7B0133FB73BB7B0133BB73BB7B3D
S11306B00F2BE2D9124B1B881A463721082002F06F
S11306C057FC0F4B5B881A463721092002F050FC77
S11306D00B4B9B881A4637210A2002F049FC084B31
S11306E0DB881A4637210B2002F042FC00BF10378A
S11306F0BD4680BD4C0000201C6A00005C6A0000FE
S1130700EC0100205C6C000000C00840CC690000D3
S113071080B582B000AFFFF7A3FE034603F4803335
S1130720002B44D04FF48030FFF768FE2B4B00229F
S11307301A7030E0294B1B78DBB21A46284B9B5CBD
S113074083F00103DBB2002B1DD1FFF73BFE786081
S1130750224B1B78DBB21946224A7B6842F82130CF
S11307601E4B1B78DBB21A461F4B53F822307A68B3
S11307709A4209D9194B1B78DBB219461A4A7B688D
S113078042F8213000E000BF144B1B78DBB2013388
S1130790DAB2124B1A70114B1B78DBB20F2BC9D98A
S11307A0124B1B68002B02D0104B1B689847FFF7B5
S11307B057FE034603F47063002B0AD04FF47060B5
S11307C0FFF71CFE0A4B1B68002B02D0084B1B686A
S11307D0984700BF0837BD4680BD00BFE801002030
S11307E0CC690000A00100200C000020E0010020E2
S11307F0E4010020B0B491B000AF4FF0FF33BB630D
S1130800EC237B634F4B07F118041D460FCD0FC437
S113081095E8030084E803004B4B3C1D1D460FCDB7
S11308200FC42B6823600123FB6344E0FB6B9B0034
S113083007F14002134453F83C3C013B434A52F84D
S113084023301A02FB6B9B0007F140010B4443F871
S1130850282CFB6B9B0007F14002134453F83C3CEB
S1130860013B3B4A52F82320FB6B9B0007F14001FC
S11308700B4453F8283CB3FBF2F2FB6B9B0007F1EB
S113088040010B4443F8282CFB6B9B0007F140020A
S1130890134453F8283C7A6B9A4209D9FB6B9B00AA
S11308A007F14002134453F8283C7B63FB6BBB63A2
S11308B0FB6B0133FB63FB6B042BB7DDBB6BB3F149
S11308C0FF3F02D14FF0FF3336E0BB6B013B1B010E
S11308D03B633A6BBB6B013B9B0007F140010B444C
S11308E053F8283CC3F58073D900BB6B9B0007F118
S11308F04000034453F8283CC3F58073B1FBF3F381
S1130900D31A3B63BB6B01339B0007F140021344D2
S113091053F8283CC3F58073DA00BB6B9B0007F1E6
S113092040010B4453F8283CC3F58073B2FBF3F247
S11309303B6B13443B633B6B18464437BD46B0BC2A
S1130940704700BFDC690000F4690000A0010020CA
S11309500C00002080B584B000AF0346FB7101F0A9
S1130960A3FBF860FFF78EFDFFF7CAFDFFF7E8FD74
S1130970FB791846FFF702FEF86801F0A4FB00BFFC
S11309801037BD4680BD000080B483B000AF03467D
S1130990FB71FB7903F01F02064997F907305B09E5
S11309A0012000FA02F241F8232000BF0C37BD46B3
S11309B080BC704700E100E080B483B000AF034620
S11309C0FB71FB7903F01F02074997F907305B09B4
S11309D0012000FA02F2603341F8232000BF0C37F3
S11309E0BD4680BC704700BF00E100E080B483B026
S11309F000AF7860044A7B68C2F81C3100BF0C3732
S1130A00BD4680BC704700BF0060004080B483B026
S1130A1000AF074BD3F810317B60054BD3F814219A
S1130A207B68134018460C37BD4680BC704700BF36
S1130A300060004080B485B000AF78607B68FB60E4
S1130A40FB6893FAA3F3BB60BB68B3FA83F318465D
S1130A501437BD4680BC704780B500AF0B20FFF74C
S1130A60ABFF0B20FFF790FF0120FFF7A5FF01204C
S1130A70FFF78AFF00BF80BD80B584B000AF034696
S1130A803960FB7101F010FBF860FB7905493A68A5
S1130A9041F82320F86801F016FB00BF1037BD466B
S1130AA080BD00BFF401002080B584B000AF786041
S1130AB019E07868FFF7BEFFF8600122FB6802FACC
S1130AC003F3DB431A467B6813407B60094AFB68E7
S1130AD052F82330BB60BB68002B04D0FB68DAB249
S1130AE0BB68104698477B68002BE2D100BF1037E3
S1130AF0BD4680BDF401002080B582B000AFFFF791
S1130B0085FF024645F2555313407B607868FFF732
S1130B106DFF7868FFF7C8FF00BF0837BD4680BD8A
S1130B2080B582B000AFFFF771FF02464AF6AA23F0
S1130B3013407B607868FFF759FF7868FFF7B4FFCC
S1130B4000BF0837BD4680BD80B483B000AF034604
S1130B50FB71FB79002B03D0054B01221A6602E0DE
S1130B60034B00221A6600BF0C37BD4680BC704799
S1130B7000A0084080B483B000AF786000BF054B8C
S1130B805A6E7B681340002BF9D100BF0C37BD4669
S1130B9080BC704700A0084080B483B000AF786088
S1130BA0054B9A6A7B68DB43034913408B6200BFA1
S1130BB00C37BD4680BC704700A0084080B500AF2C
S1130BC000222849002001F0CFFD00222549012000
S1130BD001F0CAFD00222349022001F0C5FD0022D4
S1130BE02049032001F0C0FD00221E49042001F029
S1130BF0BBFD00221B49052001F0B6FD0022194966
S1130C00062001F0B1FD00221649072001F0ACFDD9
S1130C100022FF21002001F065FE0022FF210120B7
S1130C2001F060FE0022FF21022001F05BFE0022A1
S1130C30FF21032001F056FE0022FF21042001F0D1
S1130C4051FE0022FF21052001F04CFE0022FF216D
S1130C50062001F047FE0022FF21072001F042FE9A
S1130C6000BF80BD00F00FF080B500AF0022264920
S1130C70072001F079FD00222449062001F074FDCB
S1130C8000222249052001F06FFD00221F490420A3
S1130C9001F06AFD00221D49032001F065FD0022D8
S1130CA01A49022001F060FD00221849012001F0D8
S1130CB05BFD00224FF02041002001F055FD002291
S1130CC00721072001F00EFE00220721062001F073
S1130CD009FE00220721052001F004FE002207215D
S1130CE0042001F0FFFD00220721032001F0FAFD9A
S1130CF000220721022001F0F5FD00220721012036
S1130D0001F0F0FD00BF80BD00E00F5000E00FF0E7
S1130D1080B582B000AF0346FB710121244800F086
S1130D20F3FD0321234800F0F1FF4021224800F0A5
S1130D30D5FC012001F03CF90121204800F0E4FD3C
S1130D404FF0FF30FFF728FF1D4801F0ABFB0121F6
S1130D50082001F005FC0121102001F001FC012113
S1130D60802001F0FDFB01214FF4807001F0F8FBBD
S1130D7001214FF4007001F0F3FBFB79002B0DD03F
S1130D804FF4402001F06CFE4FF4803001F0C6FBBC
S1130D900C4BDB6F0B4A43F00803D367FFF70EFFDE
S1130DA04FF0FF30FFF7E6FE00BF0837BD4680BDB9
S1130DB00043020002001C008000280000362A00C4
S1130DC03871000000800C4080B58AB000AF7860B4
S1130DD07B6842F20E72934202DD42F20F737B6033
S1130DE07B6813F57A7F01DC3D4B7B607B68002BCD
S1130DF006DA786804F0F0FD78600123BB6101E055
S1130E000023BB614FF0FF30FFF7B4FE0120FFF772
S1130E109BFE00F06DF80123FB6100233B6254E06C
S1130E207A68FB6992FBF3F22E4B83FB0213991051
S1130E30D317C91A0B469B000B445B00D11A0B460F
S1130E40FB82BB69012B04D13B6A032B01D1102324
S1130E50FB82FB8A244A32F81330BB8200237B6274
S1130E6027E022493A6A1346DB009B1A5B00CA1842
S1130E707B6A1344CB331B783B611C493A6A1346A3
S1130E80DB009B1A5B00CA187B6A1344C4331B78CB
S1130E90FB60BA8A7B6A42FA03F303F00103002B76
S1130EA004D001223969F86801F07AFB7B6A0133C6
S1130EB07B627B6A062BD4DDFA6913469B001344DC
S1130EC05B00FB613B6A01333B623B6A032BA7DD9A
S1130ED00020FFF739FE00BF2837BD4680BD00BFA4
S1130EE019FCFFFF67666666147100005C6E000003
S1130EF080B500AF00227821012001F0F3FC00222C
S1130F007821022001F0EEFC00227821032001F078
S1130F10E9FC00227821042001F0E4FC002278217D
S1130F20052001F0DFFC00227821062001F0DAFC24
S1130F3000227821072001F0D5FC00BF80BD00000D
S1130F4080B58AB000AF7860786804F04FFE03463D
S1130F50BB6100233B624FF0FF30FFF70BFE012023
S1130F60FFF7F2FDFFF780FE00233B6245E03A6A9B
S1130F70BB699A4203DA7B681B787B6201E0202319
S1130F807B627B6A203B7B62214A7B6A32F81330A6
S1130F90FB820023FB6127E01E493A6A1346DB000B
S1130FA09B1A9B00CA18FB6913440E331B783B61E0
S1130FB018493A6A1346DB009B1A9B00CA18FB695E
S1130FC013441B78FB60FA8AFB6942FA03F303F0CB
S1130FD00103002B05D0FB6839690122184601F092
S1130FE0DFFAFB690133FB61FB690D2BD4DD7B6800
S1130FF001337B603B6A01333B623B6A062BB6DDFF
S11310000020FFF7A1FD00BF2837BD4680BD00BF0B
S11310105C7000005C6E000080B584B000AF786046
S11310203960114A7B68134403F583731B78FB60B2
S11310300D4A7B68134403F587731B78BB603B68D8
S1131040002B06D0FB68B9680122184601F0A8FA03
S113105005E0FB68B9680022184601F0A1FA00BF58
S11310601037BD4680BD00BF5C6E000080B487B001
S113107000AFF860B9607A60FB6803F10473DA00CA
S1131080BB6813449B007B617B697A681A6000BF6C
S11310901C37BD4680BC704780B485B000AFF86093
S11310A0B9607A60FB681A68BB68DB431A407B68E6
S11310B01A43FB681A6000BF1437BD4680BC7047F2
S11310C080B582B000AF786039607B681C4A934277
S11310D002D07B681B4A934200BF3B681B78DA0747
S11310E03B685B789B0713431A463B685B681B06A7
S11310F013433A68127A120213433A68527A12017D
S11311001A437B681A603B689B7A1B071A463B6844
S1131110DB7A1B041A433B68DB681B02134343F06E
S1131120807343F0B0037A68536078683B681B7C33
S11311301A460021FFF79AFF00BF0837BD4680BD5D
S1131140001000400014004080B584B000AFF86087
S1131150B96011461A460B46FB711346BB71FB6816
S11311600B4A934202D0FB680A4A934200BFF868D4
S1131170BB79DB001A460821FFF78EFFBB681A0211
S1131180FB791A43FB68DA6100BF1037BD4680BDA6
S1131190001000400014004080B487B000AFF86035
S11311A0B9607A60FB6803F10473DA00BB68134426
S11311B09B007B617B697A681A6000BF1C37BD465F
S11311C080BC704780B485B000AF786039607B68BC
S11311D003F10473DA003B6813449B00FB60FB6873
S11311E01B6818461437BD4680BC704780B485B070
S11311F000AF78607B68002B03D07B68B3F5004FA9
S113120000BF7B68B3FA83F3C3F11F03FB60FB6881
S113121018461437BD4680BC7047000080B400AF48
S1131220034BDB6C1B0EDBB21846BD4680BC70471B
S1131230B081E00F80B400AF034BDB6C1B0CDBB25E
S11312401846BD4680BC7047B081E00F80B582B0BF
S113125000AFFFF7EFFF03464A2B04D0792B02D0EF
S1131260482B23D024E0154B1B699BB21B029BB275
S113127003F47C53FB80114B9B691B091B0103F096
S1131280F0039AB2FB881343FB800C4BDB691B0908
S113129003F00F039AB2FB881343FB80FB88B3F57A
S11312A0017F01D3064B04E0064B02E0054B00E04E
S11312B0002318460837BD4680BD00BFD0FF0FE0AD
S11312C000366E010048E80180B584B000AF786054
S11312D00123FB60FFF7BAFF02467B68934204D800
S11312E00023FB600023BB600BE0FFF7AFFF034666
S11312F05B007A689A4202D80123BB6001E00223B2
S1131300BB60FA681E210848FFF746FF064B5B687E
S113131023F48072BB681B02034913434B6000BF74
S11313201037BD4680BD00BF00800C4080B582B040
S113133000AF1E210448FFF745FF78607B6818461C
S11313400837BD4680BD00BF00800C4080B582B028
S113135000AF214B5B6903F4E063B3F5007F1CD05D
S1131360B3F5007F05D8002B25D0B3F5807F1FD0BF
S11313702AE0B3F5C06F24D0B3F5E06F1ED0B3F507
S1131380407F21D1FFF74AFF0346122B02D9134BAA
S11313907B601CE0124B7B6019E0FFF73FFF0346C4
S11313A0122B02D90F4B7B6011E00F4B7B600EE0D8
S11313B00E4B7B600BE00E4B7B6008E00D4B7B60BB
S11313C005E00D4B7B6002E000237B6000BF7B687F
S11313D018460837BD4680BD00800C40804F12007F
S11313E040420F0040B56400C0CF6A00C0D8A700D7
S11313F0809FD500406F4001003FAB0180B582B0B3
S113140000AF0D4800F0D4FB0346FB70FB78072BBC
S113141005D0092B07D1FEF703FF786006E0FFF73C
S113142095FF786002E000237B6000BF7B6818466C
S11314300837BD4680BD00BF06000E0080B485B0ED
S113144000AF78603960204B5B6803F00703FB60F2
S1131450FB68012B01D9042B02D10023FB7202E0AB
S11314600123FB7200BF7B68184A934207D9FB7AB9
S1131470002B01D0052300E00423FB6016E07B6809
S1131480124A93420BD87B68114A934207D9FB7ADC
S1131490002B01D0032300E00123FB6006E0FB7A6C
S11314A0002B01D0022300E00023FB60064B5B68A5
S11314B023F007020449FB6813434B6000BF143751
S11314C0BD4680BC704700BF00000C400048E801E6
S11314D00024F40080B582B000AF0E4BDB6B002B10
S11314E014BF01230023FB710A4B41F67132DA6306
S11314F0FEF78CFE034600211846FFF79FFFFB7999
S1131500002B02D0034B0022DA6300BF0837BD462C
S113151080BD00BF00000C4080B584B000AF78608F
S113152039600C4BDB6B002B14BF01230023FB73CE
S1131530084B41F67132DA6339687868FFF77EFF49
S1131540FB7B002B02D0034B0022DA6300BF103771
S1131550BD4680BD00000C4090B585B000AF7860FA
S11315600023BB607B68344A934203D0334A9342DE
S113157000D000E000BF786800F01AFB0346FB606F
S11315807B682D4A934203D02C4A934206D00CE048
S11315902B4B9B6A03F00303FB6006E0284B9B6A1A
S11315A09B0803F00303FB6000BFFB68032B39D8DF
S11315B001A252F823F000BFEF150000C915000086
S11315C0D1150000D9150000FEF7BAFEB8602DE071
S11315D0FEF7C6FEB86029E0FEF7FEFD0446FFF7FD
S11315E0A5FE0346013324FA03F3BB601EE0002387
S11315F0BB607B68104A934203D07B680F4A9342D6
S113160013D10F4B9A6A7B680B498B4201D110238B
S113161000E0142322FA03F3002B06D0FEF798FE11
S1131620B86002E00023BB6000E000BFBB6818465E
S11316301437BD4690BD00BF02001C0003001E000D
S113164000800C4080B483B000AF7860094B5B6DC0
S113165003F00103002B07D100BF064B1A6D7B6812
S11316601340002BF9D100E000BF0C37BD4680BC0D
S1131670704700BF00800C4080B582B000AF1048B6
S113168000F096FA0346FB70FB78032B07D0092B76
S113169009D0022B0BD1FEF763FE78600AE0FEF757
S11316A04FFE786006E0FEF7BBFD786002E00023A1
S11316B07B6000BF7B6818460837BD4680BD00BF0D
S11316C00723240080B400AF00BFBD4680BC704730
S11316D080B400AF00BFBD4680BC704790B585B0F4
S11316E000AF786039607B681B0903F00F03FB606F
S11316F0FB68013B082B00F2F48001A252F823F0AE
S113170025170000E3180000E31800005917000033
S1131710E3180000E318000081170000CD17000053
S11317208F1800003B68002B02D03B68082B00BFD9
S1131730FFF7D0FE6D4B1B6823F4E0323B68013B9E
S11317409B036A4913430B60FEF746FDB860002112
S1131750B868FFF7E1FEC5E03B68002B03D03B68A7
S1131760B3F5007F00BF3868FFF740FD38605F4B7A
S11317709B6823F00F025D493B6813438B60B1E023
S11317803B68002B03D03B68B3F5007F00BFFFF735
S1131790A1FEFEF745FD02463B68B2FBF3F3184693
S11317A0FFF792FD3868FFF721FD38604F4B5B6807
S11317B023F00F024D493B6813434B60FEF70CFDC9
S11317C0B8600021B868FFF7A7FE8BE07B68484A41
S11317D093421ED0464A934203D8464A934207D0C6
S11317E054E0454A934225D0444A93423ED04DE0CA
S11317F00420FFF727FF3868FFF7F8FC38603B4BFD
S11318009B6E23F0F0023B681B01384913438B663F
S11318103CE00420FFF716FF3868FFF7E7FC386068
S1131820324B9B6E23F470623B681B022F491343B7
S11318308B662BE03B680F2B02D93B68802B00BFE3
S11318400420FFF7FFFE3868FFF7D0FC3860274B11
S11318509B6E23F440541020FFF7C8FC02463B68FB
S11318609B1A1B03214A234393660FE00420FFF7CE
S1131870E9FE3868FFF7BAFC38601C4B9B6E23F016
S113188003021A493B6813438B6600BF2AE07B6856
S11318901B4A934203D01B4A934210D020E04020BD
S11318A0FFF7D0FE3868FFF7A1FC38600F4B1B6FC1
S11318B023F003020D493B6813430B6710E04020FB
S11318C0FFF7C0FE3868FFF791FC3860074B1B6FC9
S11318D023F030023B681B01044913430B6700BF2C
S11318E000E000BF00BF1437BD4690BD00800C402F
S11318F080261600801612008000280080062C0026
S11319009007180090171A0080B586B000AF786071
S11319100B46FB7000233B617B681B0A03F00F033B
S1131920013B092B45D801A252F823F069190000A4
S11319306F19000055190000B3190000B319000015
S1131940751900007F190000B3190000B3190000D5
S113195089190000194B7B61194800F03DF80346D2
S11319601846FFF7B1FC12E0164B7B610FE0164BF3
S11319707B610CE0154B7B6101233B6107E0144B59
S11319807B6110233B6102E0124B7B6100BF7B68EB
S11319901B0B03F01F03FB603B69002B02D038696B
S11319A0FFF750FEFB781A46F9687869FFF7F4FBF5
S11319B000E000BF1837BD4680BD00BF40800C402A
S11319C00043020008800C4044800C4058800C40C6
S11319D060800C4078800C4090B585B000AF786092
S11319E07B6803F47813B3F5C01F00F0AB80B3F544
S11319F0C01F1AD8B3F5602F00F0BF80B3F5602F75
S1131A0008D8B3F5003F3CD0B3F5802F2DD0002B80
S1131A1027D0BEE0B3F5901F3CD0B3F5B01F47D03C
S1131A20B3F5801F00F0AD80B3E0B3F5101F00F0F4
S1131A30AC80B3F5101F0AD8B3F5E01F25D0B3F579
S1131A40F01F7AD0B3F5D01F00F08980A1E0B3F580
S1131A50281F4ED0B3F5301F62D0B3F5201F35D008
S1131A6097E0FEF7DDFBF86096E0FEF7D9FBF8603F
S1131A704C4B9B6803F00F03FA6822FA03F3FB60F4
S1131A808AE0FEF7A9FBF86086E04748FFF764FDAB
S1131A90F86081E04448FFF75FFDF860414B9B6EBE
S1131AA01B0903F00F03FA6822FA03F3FB6073E0E7
S1131AB03D48FFF751FDF8603A4B9B6E1B0A03F05B
S1131AC00F03FA6822FA03F3FB6065E03648FFF778
S1131AD043FDF860334B9B6E1B0B03F00304102093
S1131AE0FFF784FB03462344FA6822FA03F3FB60FE
S1131AF052E02D48FFF730FDF8602A4B9B6E1B0B1C
S1131B0003F00303FA6822FA03F3FB60254BDB6F4F
S1131B1003F007030133FA68B2FBF3F3FB603BE025
S1131B202148FFF719FDF8601E4B9B6E03F0030379
S1131B30FA6822FA03F3FB602EE01C48FFF70CFD61
S1131B40F86029E01948FFF707FDF860154B1B6F93
S1131B5003F00303FA6822FA03F3FB601CE0134862
S1131B60FFF7FAFCF8600F4B1B6F1B0903F003032C
S1131B70FA6822FA03F3FB600EE0FFF73FFCF8601B
S1131B800AE0FFF7E3FBF86006E0FFF775FDF86095
S1131B9002E00023FB6000BFFB6818461437BD4613
S1131BA090BD00BF00800C4002001C0003001E001A
S1131BB080B485B000AF78600123FB737B6803F0C9
S1131BC00F03BB60BB68013B062B00F2938001A2AC
S1131BD052F823F0F11B0000271C0000631C0000D6
S1131BE0F51C0000F51C00009F1C0000C11C000037
S1131BF0454BDB6A03F47053B3F5805F09D0B3F54A
S1131C00005F03D0B3F5006F06D008E00223FB7336
S1131C1008E00323FB7305E00423FB7302E00523C0
S1131C20FB7300BF69E0384B9B6A03F00303022B8C
S1131C3006D0032B07D0012B08D10323FB730FE03D
S1131C400223FB730CE00623FB7309E02E4B9B6A13
S1131C5003F48033002B02D00A23FB7300E000BF9F
S1131C604BE0294B9B6A03F00C03082B06D00C2B8A
S1131C7007D0042B08D10323FB730FE00223FB736B
S1131C800CE00623FB7309E01F4B9B6A03F48013EB
S1131C90002B02D00A23FB7300E000BF2DE01A4B97
S1131CA01B6803F08053002B03D0B3F1805F03D093
S1131CB023E00723FB7302E00923FB7300BF1CE04E
S1131CC0114BDB6A03F46033B3F5803F08D0B3F5FE
S1131CD0003F08D0B3F5004F08D10923FB7308E097
S1131CE00223FB7305E00323FB7302E00123FB7370
S1131CF000BF02E00023FB7300BFFB7B18461437D0
S1131D00BD4680BC704700BF00800C4080B588B0E1
S1131D1000AF78600B46FB700323FB610323FB7663
S1131D2000233B617B6803F00F03FB60FB68013B0E
S1131D30062B00F22C8101A252F823F0591D000059
S1131D40371E0000371E00008F1F00008F1F000089
S1131D50FD1E0000271F0000FB78023B082B00F249
S1131D60188101A252F823F08D1D0000971D000078
S1131D70A11D0000E31D0000931F0000931F00003D
S1131D80931F0000931F0000931F00000423FB61B6
S1131D900023FB7631E00323FB610123FB762CE077
S1131DA00223FB610223FB76FFF750FA034601335B
S1131DB01846FFF789FAFEF7B3FA0246784B9A42BF
S1131DC006D9784B1B68774A43F06003136014E02C
S1131DD0744B1B6823F06003724A43F020031360C2
S1131DE00BE00123FB610323FB76FFF72FFA034685
S1131DF001331846FFF768FA00BFFB7E0122012178
S1131E00184600F0F3F8FFF765FBFFF75BFC654A43
S1131E10FB6953626448FFF7DFFD03461846FFF78A
S1131E2053FAFEF7D9F9B8600021B868FFF774FBDC
S1131E30FFF74EFCB0E0FB78013B092B00F2AB80CE
S1131E4001A252F823F000BF711E0000771E0000AB
S1131E50871E0000971F0000971F0000971E0000B8
S1131E60971F0000971F0000971F0000B31E00007B
S1131E7000237B6122E001220121002000F0B6F85A
S1131E8002237B611AE001220121012000F0AEF857
S1131E9001237B6112E0FEF79FF9B860B868FFF791
S1131EA013FA012204214148FFF776F903237B61E9
S1131EB004E000237B6101233B6100BFFB68022B2C
S1131EC00DD1384B9B6A23F4803323F003037A69E2
S1131ED01A433B691B04334913438B625CE0314B67
S1131EE09B6A23F4801323F00C037A6992001A434B
S1131EF03B691B052B4913438B624DE0FB78072B91
S1131F0002D0092B07D047E0264B1B68254A23F053
S1131F108053136006E0234B1B68224A43F080532E
S1131F20136000BF38E0FB78032B14D0092B22D0B8
S1131F30022B00D030E001220121002000F056F8ED
S1131F40184B40225A6200BF164BDB6A03F48033FD
S1131F50002BF9D01AE001220121012000F046F8FB
S1131F60104B60225A6200BF0E4BDB6A03F400334D
S1131F70002BF9D00AE00B4B20225A6200BF094B18
S1131F80DB6A03F40043002BF9D000BF04E000BF78
S1131F9002E000BF00E000BF2037BD4680BD00BFA7
S1131FA00048E80100800C400043020040800C40DF
S1131FB080B483B000AF78600B4B9B6D03F00803D3
S1131FC0002B0CD17B6803F007037B60064BDB6FAF
S1131FD023F0070204497B681343CB6700E000BF8A
S1131FE00C37BD4680BC704700800C4080B586B07D
S1131FF000AF0346FB710B46BB7113467B71FB7943
S1132000042B48D801A252F823F000BF5920000045
S11320104B2000002F200000212000003D20000064
S113202001233B610223FB6001237B611DE0042348
S11320303B610823FB6003237B6116E010233B61B3
S11320402023FB6005237B610FE040233B61802359
S1132050FB6007237B6108E04FF480733B614FF41E
S11320600073FB6009237B6100BFBB79002B0ED09A
S11320700B4A3B6913627B79002B0DD000BF796951
S11320800848FFF79FF80346002BF8D004E0044A01
S1132090FB68136200E000BF1837BD4680BD00BF77
S11320A000800C402C800C4080B483B000AFEFF370
S11320B010833B603B687B6072B67B6818460C37C4
S11320C0BD4680BC704780B483B000AF78607B6845
S11320D0002B00D162B600BF0C37BD4680BC7047F0
S11320E080B487B000AFF860B9607A60FB6803F130
S11320F00473DA00BB6813449B007B617B697A68D4
S11321001A6000BF1C37BD4680BC704780B485B0E0
S113211000AFF860B9607A60FB681A68BB68DB439B
S11321201A407B681A43FB681A6000BF1437BD4627
S113213080BC704780B483B000AF03463960FB7144
S1132140FB79002B0DD0FB79012B0AD0FB79022BF4
S113215007D0FB79032B04D0FB79042B01D0FB7946
S1132160052B01223B6802FA03F30749FA79184662
S11321701346DB0013449B000B441433186000BF68
S11321800C37BD4680BC70470060004080B483B00B
S113219000AF03463960FB71FB79002B0DD0FB794E
S11321A0012B0AD0FB79022B07D0FB79032B04D037
S11321B0FB79042B01D0FB79052B01223B6802FA41
S11321C003F30749FA7918461346DB0013449B00CE
S11321D00B441033186000BF0C37BD4680BC7047F9
S11321E00060004080B483B000AF03460A46FB7130
S11321F01346BB71FB79002B0ED0FB79012B0BD05E
S1132200FB79022B08D0FB79032B05D0FB79042B37
S113221002D0FB79052B02D1BB79032B00BF0C49FB
S1132220FA791346DB0013449B000B441B6823F02C
S11322300301BB790648FA7919431346DB001344BA
S11322409B000344196000BF0C37BD4680BC704737
S11322500060004080B586B000AFB9607A601A466D
S11322600346FB731346BB7300237B61FB7B002B8C
S11322700DD0FB7B012B0AD0FB7B022B07D0FB7B11
S1132280032B04D0FB7B042B01D0FB7B052B7B6849
S1132290072B0ED87B689B00072202FA03F1FA7B16
S11322A07B689B0002FA03F31A461948FFF72EFFD6
S11322B010E07B68083B7B617B699B00072202FA84
S11322C003F1FA7B7B699B0002FA03F31A46114877
S11322D0FFF71CFFBB7B1A4679680F48FFF700FF26
S11322E097F820301A4679680C48FFF7F9FE012266
S11322F07B689A400A4BC3F81C2197F824301A468D
S113230079680848FFF7ECFE00BF1837BD4680BD6A
S11323100061004004610040086100400C6100401D
S1132320006000401061004080B584B000AFB96027
S11323307B600346FB731346BB73FB7B002B0DD002
S1132340FB7B012B0AD0FB7B022B07D0FB7B032BEF
S113235004D0FB7B042B01D0FB7B052BBB7B002B28
S11323600DD07B68002B05D0FB7BB9681846FFF7BE
S11323700DFF04E0FB7BB9681846FFF7DBFEBB6882
S1132380072B20D82D49FA7B1346DB0013449B000E
S11323900B4404331A68BB689B000F2101FA03F352
S11323A0DB431340B97BBA68920001FA02F211468A
S11323B02248FA7B19431346DB0013449B00034471
S11323C00433196025E01D49FA7B1346DB001344EE
S11323D09B000B4408331A68BB6803F18043083B35
S11323E09B000F2101FA03F3DB4302EA0301BA7BEA
S11323F0BB6803F18043083B9B0002FA03F30F48D8
S1132400FA7B19431346DB0013449B00034408334F
S11324101960BB7B002B0DD17B68002B05D0FB7BA7
S1132420B9681846FFF7B2FE04E0FB7BB9681846AA
S1132430FFF780FE00BF1037BD4680BD006000403E
S113244080B483B000AF0346FB71FB79002B06D048
S1132450084B1B68074A43F00103136005E0054B72
S11324601B68044A23F00103136000BF0C37BD4608
S113247080BC704700A0084080B487B000AFF8600B
S1132480B9607A60FB6803F10473DA00BB68134433
S11324909B007B617B697A681A6000BF1C37BD466C
S11324A080BC704780B584B000AF78601A4B5B681D
S11324B0FB600020FFF7C4FFFB6823F4830323F0D1
S11324C01F03FB607B685B68FA681343FB607B68EF
S11324D01B7A1A46FB681343FB607B685B7A1A46D7
S11324E0FB681343FB607B68DB68FA681343FB609B
S11324F07B681B8A1A46FB681343FB60064AFB6829
S113250053607B681B78002B02D00120FFF798FFF3
S113251000BF1037BD4680BD00A0084080B485B020
S113252000AF78600D4B5B68FB60FB6823F480337D
S1132530FB607B68002B08D0B3F5803F00D005E03A
S1132540FB6843F48033FB6000E000BF034AFB6890
S1132550536000BF1437BD4680BC704700A00840DC
S113256080B483B000AF03460A46FB8013467B71F8
S11325707B79002B06D0094B9A68FB8807491343E3
S11325808B6006E0054B9A68FB88DB4303491340E4
S11325908B6000BF0C37BD4680BC704700A008406C
S11325A080B584B000AFF860B9601346FB71FB6876
S11325B0072B00F2B38001A252F823F0DD250000BE
S11325C0052600002D260000552600007D2600006B
S11325D0A5260000CD260000F5260000BB681F2BB1
S11325E006DCBB68FA7919464F48FFF745FF96E0C9
S11325F0BB68203BBB60BB68FA7919464B48FFF7C0
S11326003BFF8CE0BB681F2B06DCBB68FA791946DC
S11326104748FFF731FF82E0BB68203BBB60BB68E3
S1132620FA7919464348FFF727FF78E0BB681F2B68
S113263006DCBB68FA7919463F48FFF71DFF6EE0D8
S1132640BB68203BBB60BB68FA7919463B48FFF77F
S113265013FF64E0BB681F2B06DCBB68FA791946DC
S11326603748FFF709FF5AE0BB68203BBB60BB68F3
S1132670FA7919463348FFF7FFFE50E0BB681F2B79
S113268006DCBB68FA7919462F48FFF7F5FE46E0E9
S1132690BB68203BBB60BB68FA7919462B48FFF73F
S11326A0EBFE3CE0BB681F2B06DCBB68FA791946DD
S11326B02748FFF7E1FE32E0BB68203BBB60BB6804
S11326C0FA7919462348FFF7D7FE28E0BB681F2B89
S11326D006DCBB68FA7919461F48FFF7CDFE1EE0F9
S11326E0BB68203BBB60BB68FA7919461B48FFF7FF
S11326F0C3FE14E0BB681F2B06DCBB68FA791946DD
S11327001748FFF7B9FE0AE0BB68203BBB60BB6813
S1132710FA7919461348FFF7AFFE00E000BF00BF87
S11327201037BD4680BD00BF40A0084050A00840FF
S113273044A0084054A0084048A0084058A00840BD
S11327404CA008405CA00840CCA00840B4A00840BD
S1132750D0A00840B8A00840D4A00840BCA00840BD
S1132760D8A00840C0A0084080B487B000AFF8608B
S1132770B9607A60FB68072B00F2AC8001A252F8C2
S113278023F000BFA5270000C9270000ED270000A3
S113279011280000352800005D280000852800006D
S11327A0AD2800004E4B1B6C7B61BB68DB437A6930
S11327B013407B61BA687B6813407A6913437B6179
S11327C0474A7B69136486E0454B5B6C7B61BB685D
S11327D0DB437A6913407B61BA687B6813407A698A
S11327E013437B613E4A7B69536474E03C4B9B6CAE
S11327F07B61BB68DB437A6913407B61BA687B68A1
S113280013407A6913437B61354A7B69936462E0C0
S1132810334BDB6C7B61BB68DB437A6913407B61C0
S1132820BA687B6813407A6913437B612C4A7B69DD
S1132830D36450E02A4BD3F8CC307B61BB68DB43D4
S11328407A6913407B61BA687B6813407A691343E1
S11328507B61234A7B69C2F8CC303CE0204BD3F83F
S1132860D0307B61BB68DB437A6913407B61BA6813
S11328707B6813407A6913437B61194A7B69C2F808
S1132880D03028E0164BD3F8D4307B61BB68DB43EF
S11328907A6913407B61BA687B6813407A69134391
S11328A07B610F4A7B69C2F8D43014E00C4BD3F837
S11328B0D8307B61BB68DB437A6913407B61BA68BB
S11328C07B6813407A6913437B61054A7B69C2F8CC
S11328D0D83000E000BF00BF1C37BD4680BC704745
S11328E000A0084080B487B000AFF860B9607A6097
S11328F0FB68072B00F2AC8001A252F823F000BF62
S11329002129000045290000692900008D290000C3
S1132910B1290000D9290000012A0000292A000059
S11329204E4B1B6D7B61BB68DB437A6913407B6153
S1132930BA687B6813407A6913437B61474A7B69B1
S1132940136586E0454B5B6D7B61BB68DB437A694D
S113295013407B61BA687B6813407A6913437B61D7
S11329603E4A7B69536574E03C4B9B6D7B61BB685D
S1132970DB437A6913407B61BA687B6813407A69E8
S113298013437B61354A7B69936562E0334BDB6DAE
S11329907B61BB68DB437A6913407B61BA687B68FF
S11329A013407A6913437B612C4A7B69D36550E0F9
S11329B02A4BD3F8B4307B61BB68DB437A6913409C
S11329C07B61BA687B6813407A6913437B61234A4D
S11329D07B69C2F8B4303CE0204BD3F8B8307B615B
S11329E0BB68DB437A6913407B61BA687B68134038
S11329F07A6913437B61194A7B69C2F8B83028E0CD
S1132A00164BD3F8BC307B61BB68DB437A69134057
S1132A107B61BA687B6813407A6913437B610F4A10
S1132A207B69C2F8BC3014E00C4BD3F8C0307B6136
S1132A30BB68DB437A6913407B61BA687B681340E7
S1132A407A6913437B61054A7B69C2F8C03000E0B0
S1132A5000BF00BF1C37BD4680BC704700A00840C3
S1132A6080B483B000AF7860064B5B6823F4E01257
S1132A7004497B6813434B6000BF0C37BD4680BCE0
S1132A80704700BF00A0084080B487B000AFF86072
S1132A90B9607A60FB6803F10473DA00BB6813441D
S1132AA09B007B617B697A681A6000BF1C37BD4656
S1132AB080BC704780B582B000AF78600B46FB7075
S1132AC0FB78002B01D000F0EFFA7B681B7D1846E1
S1132AD000F022F97B685B789B007A6892781A434D
S1132AE07B689B681A437B68DB681A437B68DB78E6
S1132AF05B021A437B681B799B021A437B685B79F0
S1132B005B031A437B689B795B041A437B68DB791C
S1132B101B041A437B685B7C9B053F4913430B6092
S1132B207B681B780021184600F0D6F87B681B7E72
S1132B301A467B68DB7E5B001A437B685B7E9B00E6
S1132B401A437B689B7E9B011A437B681B7F1B0196
S1132B501A437B685B7F1B021A437B689B7F9B0243
S1132B601A437B681B6A1A437B6893F824301B055D
S1132B701A437B6893F825309B051A437B689B6A4C
S1132B80254913438B607B689B8D1A467B6893F8B9
S1132B903B309B021A437B6893F83C309B031A43F7
S1132BA07B6893F83D309B041A437B6893F83E306E
S1132BB09B051A437B6893F834305B001A437B68A7
S1132BC093F835309B001A437B6893F83630DB006A
S1132BD01A437B6893F837301B011A437B6893F8D8
S1132BE038305B011A437B6893F839309B011A43F0
S1132BF07B6893F83A30DB0107491343CB607B6869
S1132C001B6B184600F0F2F97B681A7C024B1A61C0
S1132C1000BF0837BD4680BD00C0084080B588B0FD
S1132C2000AF786039600023FB610123BB613F235F
S1132C307B617B68002B03D12548FEF7CDFE7860CD
S1132C403B68002B0CD03A687B689A4200BF07E0CF
S1132C50FB690133FB610122FB6902FA03F3BB61E7
S1132C603B68BA6902FB03F37A68B2FBF3F27B694F
S1132C7001339A4202D9FB69062BE9D93B68BA6948
S1132C8002FB03F37A68B2FBF3F3013B7B61114B64
S1132C905B6823F47F2323F4E0633B61FB691A023E
S1132CA07B691B0313433A6913433B61094A3B693C
S1132CB053607B690133BA6902FB03F37A68B2FBA0
S1132CC0F3F3FB60FB6818462037BD4680BD00BFA8
S1132CD080062C0000C0084080B584B000AF0346D5
S1132CE00A46FB711346BB710A4B1B6823F00303AE
S1132CF0FB60FB79FA681343FB60064AFB681360C8
S1132D00BB79002B01D000F081F900BF1037BD461C
S1132D1080BD00BF00C0084080B485B000AF03464A
S1132D20FB71094B5B6823F44003FB60FB799B0553
S1132D30FA681343FB60044AFB68536000BF14370E
S1132D40BD4680BC704700BF00C0084080B485B059
S1132D5000AF03460A46FB711346BB71FB79002B97
S1132D600FD0012B00D01AE00F4B5B6823F0030354
S1132D70FB60BB79FA681343FB600B4AFB68536042
S1132D800DE0094B5B6823F07003FB60BB791B010A
S1132D90FA681343FB60044AFB68536000BF00BF3A
S1132DA01437BD4680BC704700C0084080B584B06D
S1132DB000AF78600023FB600AE0FB685B017A687F
S1132DC01344F968184600F00BF8FB680133FB6004
S1132DD0FB680F2BF1D900BF1037BD4680BD000042
S1132DE080B584B000AF786039607B685B68B3F508
S1132DF0C03F7B681B7A032B0AD13B680C2B07D09E
S1132E003B680D2B04D03B680E2B01D03B680F2B85
S1132E1000BF7B681B7A032B0AD13B68002B07D0C9
S1132E203B68012B04D03B68022B01D03B68032B89
S1132E3000BF394B9A6B3B685B00032101FA03F333
S1132E40DB431340FB607B681B7A1A463B685B00DC
S1132E5002FA03F3FA681343FB602F4AFB68936397
S1132E603B68D8B27B68D97B7B681A7C7B685B8AB9
S1132E7000F05AF87B685B7B5A047B689B7B9B045D
S1132E8013437A68D28A13437A68128B1A437B6895
S1132E905B681A437B685B7ADB041F491A433B680F
S1132EA02C331B010B4404331A607B68DA697B689A
S1132EB09B7A5B041A437B681B7B9B041A437B68E5
S1132EC0DB7ADB0414491A433B681B010B4403F50A
S1132ED032731A603B68D8B27B68998A7B685B8BD3
S1132EE01A4600F045F87B689B781A4639680B4807
S1132EF0FFF7CAFD7B685B781A4639680848FFF714
S1132F00C3FD7B681B781A4639680648FFF7BCFD89
S1132F1000BF1037BD4680BD00C008404CC008400B
S1132F2054C0084018C0084090B482B000AF0446B2
S1132F30084611461A462346FB710346BB710B46ED
S1132F407B7113467B80BA797B799B0142EA03014A
S1132F507B885A030548FB790A432C331B0103443D
S1132F601A6000BF0837BD4690BC704700C00840D7
S1132F7080B485B000AF0346FB710B46BB8013469B
S1132F807B80194AFB792C331B01134404331B68DF
S1132F9023F47F6323F00F03FB60BB88FA681343B9
S1132FA0FB60114AFB792C331B0113440433FA6888
S1132FB01A600D4AFB791B01134403F532731B6835
S1132FC01B0C1B04FB607B88FA681343FB60064AF6
S1132FD0FB791B01134403F53273FA681A6000BFCE
S1132FE01437BD4680BC704700C0084080B483B02D
S1132FF000AF7860044A7B6803F00F03136300BFDB
S11330000C37BD4680BC704700C0084080B400AF98
S113301000BF0A4B1B6D03F02003002BF9D1074BB3
S113302001225A6100BF054B1B6D03F02003002BE6
S1133030F9D100BFBD4680BC704700BF00C0084046
S113304080B400AF00BF0A4B1B6D03F02003002BBC
S1133050F9D1074B02225A6100BF054B1B6D03F0E7
S11330602003002BF9D100BFBD4680BC704700BFD0
S113307000C0084080B400AF00BF0A4B1B6D03F0D2
S11330802003002BF9D1074B08225A6100BF054BDE
S11330901B6D03F02003002BF9D100BFBD4680BC9B
S11330A0704700BF00C0084080B483B000AF384B05
S11330B00022DA64364B374A5A64354BDB68344AAB
S11330C043F00103D36000BF314B1B6D03F02003B9
S11330D0002BF9D12E4B0A225A612D4B00221A6083
S11330E02B4B00229A602A4B0022DA60284B0022E4
S11330F01A61274B00229A61254B00229A63244BC4
S11331000022DA63224B00225A6500237B6019E017
S11331101F4A7B682C331B01134400221A601C4A8B
S11331207B682C331B011344043300221A60184AB1
S11331307B681B01134403F5327300221A607B6819
S113314001337B607B680F2BE2D900237B600FE0A7
S11331500F4A7B684033002142F833100C4A7B68E5
S11331604033DB00134400225A607B6801337B60E8
S11331707B680F2BECD900BF054B1B6D03F02003BC
S1133180002BF9D100BF0C37BD4680BC704700BF8F
S113319000C00840FFFF7F0080B485B000AF7860B6
S11331A01A4B5B69DBB29B00DBB203F03C03FB739D
S11331B0164B1B699B09DBB203F00303DAB2FB7BFA
S11331C01343FB737B68FA7B9A70104B1B69DBB269
S11331D003F03F03DAB27B685A700C4B9B691B09FE
S11331E0DBB21B01FB73094BDB691B09DBB203F088
S11331F00F03DAB2FB7B1343FB737B68FA7B1A7011
S113320000BF1437BD4680BC704700BFD0FF0FE03D
S113321080B483B000AF78607B680D4A93420BD0D2
S11332207B680C4A934207D07B680B4A934203D0D5
S11332307B680A4A934201D1012300E0002303F092
S11332400103DBB218460C37BD4680BC704700BF93
S1133250000001400004014000080140000C01404E
S113326080B582B000AF786039607868FFF7D0FF2E
S11332703B681B7883F00103DBB2002B02D07B6830
S113328002225A607B6800225A623B689B781A06C5
S11332903B68DB781B041A433B689B799B021A4307
S11332A03B68DB791B0213433A68127A13433A688A
S11332B05278002A01D0402200E0002213433A68E9
S11332C0527A002A01D0802200E0002213433A6897
S11332D0927A002A01D0202200E0002213433A68A7
S11332E0D27A002A01D0102200E0002213433A6867
S11332F01279002A02D04FF4005200E00022134356
S11333003A685279002A02D04FF0805200E000223D
S113331013433A68127B002A01D0082200E00022FD
S11333201A437B681A603B681B78002B02D07B68C9
S113333001225A6000BF0837BD4680BD80B586B003
S113334000AFF860B9607A60FB70BB68002B03D1F2
S11333502448FEF741FBB860FB78202B0CD0202BCF
S113336002DC002B05D03AE0402B08D0602B09D0BA
S113337035E010237B6108E008237B6105E0062328
S11333807B6102E004237B6100BFBB689A007B6918
S1133390796801FB03F35B0813443B617B697A683A
S11333A002FB03F33A69B2FBF3F33B613B69043B71
S11333B03B613B699B013B613A690B4B13403B61A9
S11333C0FB681B6823F06002FB681A60FB681A68DC
S11333D0FB781A43FB681A60FB683A695A6118372C
S11333E0BD4680BD40810400C0FF1F0080B485B08D
S11333F000AF78600B46FB707B68134A93420ED093
S11334007B68124A93420AD07B68114A934206D0E1
S11334107B68104A934202D07B680F4A934200BFF4
S1133420FB78DB43FB60FB6803F00503FB60FB6890
S11334305A007B68DA60FA787B68DA6000BF143778
S1133440BD4680BC704700BF00C0004000C40040BF
S113345000C8004000E0004000E4004080B582B0B5
S113346000AF786039607B68294A93420ED07B684C
S1133470284A93420AD07B68274A934206D07B6845
S1133480264A934202D07B68254A934200BF78685B
S113349000F048F83B689B7C002B05D07B681B68D8
S11334A043F080427B681A603B68DB7C002B07D0CA
S11334B03B681B7D43F01003DBB21A467B689A65B8
S11334C03B685B7B1A463B681B8A13433A68D28984
S11334D01A437B685A603B6859683B689A683B6842
S11334E01B7B7868FFF72AFF3B685B7D002B05D0C8
S11334F07B681B6843F480327B681A603B681B78E6
S11335001A467B68DA6000BF0837BD4680BD00BF3D
S113351000C0004000C4004000C8004000E000407B
S113352000E4004080B483B000AF78607B68244A34
S113353093420ED07B68234A93420AD07B68224A86
S1133540934206D07B68214A934202D07B68204A8A
S1133550934200BF7B6840F6AA62DA607B6800226F
S11335601A607B6841F205025A607B6800229A6007
S11335707B6800225A617B680022DA647B6841F62A
S1133580F9729A647B6800225A657B680C4A9342FC
S113359002D17B6800221A657B6800229A657B68E9
S11335A0084A934203D07B68074A934202D17B685E
S11335B00022DA6500BF0C37BD4680BC704700BFEF
S11335C000C0004000C4004000C8004000E00040CB
S11335D000E4004080B483B000AF786000BF7B6833
S11335E01B6903F08003002BF9D07B68DB69DBB235
S11335F018460C37BD4680BC704780B483B000AF1A
S113360078600B46FB7000BF7B681B6903F04003C6
S1133610002BF9D0FA787B685A6300BF0C37BD469B
S113362080BC704780B483B000AF78600023184634
S11336300C37BD4680BC704780B483B000AF78605F
S1133640FEE780B483B000AF786039603B684FF424
S113365000525A60002318460C37BD4680BC7047A0
S113366080B483B000AF7860012318460C37BD46A0
S113367080BC704780B485B000AFF860B9607A60F0
S1133680002318461437BD4680BC704780B586B009
S113369000AFF860B9607A6000237B610FE000F04E
S11336A07FF938613B69B3F1FF3F0ED0BB685A1C08
S11336B0BA603A69D2B21A707B6901337B617B6864
S11336C05A1E7A60002BEAD100E000BF7B69002B10
S11336D002DC4FF0FF3300E07B6918461837BD4623
S11336E080BD000080B485B000AF78600A4B1B68D1
S11336F0002B02D1084B094A1A60074B1B68FB6078
S1133700054B1A687B681344034A1360FB68184628
S11337101437BD4680BC704734020020A80A00203C
S113372080B586B000AFF860B9607A6000237B6131
S113373009E0BB685A1CBA601B78184600F070F99F
S11337407B6901337B617A697B689A42F1DB7B6830
S113375018461837BD4680BD80B483B000AF034619
S1133760FB71FB7903F01F02064997F907305B09E7
S1133770012000FA02F241F8232000BF0C37BD46B5
S113378080BC704700E100E080B483B000AF034622
S1133790FB71FB7903F01F02074997F907305B09B6
S11337A0012000FA02F2603341F8232000BF0C37F5
S11337B0BD4680BC704700BF00E100E080B483B028
S11337C000AF786039607B683A689A6400BF0C3750
S11337D0BD4680BC704780B483B000AF7860396068
S11337E07B68DA6C3B68DB431A407B68DA6400BFB1
S11337F00C37BD4680BC704780B483B000AF78609E
S113380039607B68DA6C3B681A437B68DA6400BF12
S11338100C37BD4680BC704780B500AF0421024818
S1133820FFF7D9FF00BF80BD00E0004080B500AFC6
S113383004210248FFF7E0FF00BF80BD00E0004024
S113384098B500AF144B1B6903F08003002B20D004
S1133850124B1B68072B1ADC114B1C680E48FFF730
S1133860B9FE03461A460F4B1A550D4B1B6801331C
S11338700B4A1360094B1B680133084A1360084B59
S11338801B68082B05D1064B00221A6001E0FFF7E4
S1133890C3FF00BF98BD00BF00E00040400200200D
S11338A03C0200204402002080B483B000AF786062
S11338B07B68002B03D0064B01221A7002E0044BF4
S11338C000221A7000BF0C37BD4680BC704700BF91
S11338D04C020020B0B588B000AF01212948FEF7A2
S11338E013F801212848FEF70FF8012304220021D0
S11338F00420FEF719FD0023012201210420FEF714
S113390013FD224BFB61224B3C1D1D460FCD0FC402
S113391095E8030084E8030001230422072105201D
S1133920FEF702FD01211B48FDF7EEFF00233B716A
S11339303B1D1946F869FFF791FDFB6940F203123C
S11339405A6504211148FFF739FF1420FFF71CFFC3
S113395004210E48FFF750FF1420FFF7FDFE052158
S1133960F869FFF743FD0C4B1B689868002302229B
S1133970002102F08DF8094B01221A7000BF203794
S1133980BD46B0BD4081040000D2040000E0004008
S11339904C71000000320400180100204D02002088
S11339A080B582B000AF4FF0FF337B60184B1B78BB
S11339B083F00103DBB2002B01D0FFF78BFFFEF78E
S11339C073FB3860134B1B68002B18DD124B1B680C
S11339D0124AD35CDBB27B600F4B1B6801330E4A87
S11339E013600D4B1B68082B02D10B4B00221A608D
S11339F0084B1B68013B074A1360FFF717FF386841
S1133A00FEF761FB7B6818460837BD4680BD00BFE2
S1133A104D02002040020020380200204402002011
S1133A2080B582B000AF0346FB71144B1B7883F062
S1133A300103DBB2002B01D0FFF74CFF104B1B78C6
S1133A40002B06D0FB790A2B03D10D210D48FFF77B
S1133A50D4FDFB7919460B48FFF7CFFD084B1B78C3
S1133A60002B06D0FB790D2B03D10A210548FFF763
S1133A70C4FDFB7918460837BD4680BD4D020020C1
S1133A804C02002000E0004080B483B000AF7860B6
S1133A907B680D4A93420BD07B680C4A934207D053
S1133AA07B680B4A934203D07B680A4A934201D154
S1133AB0012300E0002303F00103DBB218460C37B6
S1133AC0BD4680BC704700BF0000014000040140B7
S1133AD000080140000C014080B483B000AF78605E
S1133AE04FF6FF7318460C37BD4680BC704780B450
S1133AF083B000AF78607B685B6A18460C37BD46BC
S1133B0080BC704780B582B000AF78603960786857
S1133B10FFF7E2FF7B683A685A6200BF0837BD4688
S1133B2080BD80B582B000AF78600B46FB707868CA
S1133B30FFF7AAFFFB78002B03D07B6801225A60B1
S1133B4002E07B6802225A6000BF0837BD4680BD90
S1133B5080B483B000AF786039607B683A689A615A
S1133B6000BF0C37BD4680BC7047000080B500AF75
S1133B7001211848FFF7ECFF174B1B78DBB2002B31
S1133B800BD0164B1B78DBB2002B06D0144801F087
S1133B9067FF144B01221A7010E00F4B1B78DBB245
S1133BA0002B03D0104B01221A7007E00B4B1B783B
S1133BB0DBB2002B02D00D4B01221A700021054804
S1133BC0FFF7A0FF044B00221A70044B00221A7066
S1133BD000BF80BD00000140720200206A02002084
S1133BE0647100007002002060020020690200205D
S1133BF080B500AF01211748FFF7AAFF164B012239
S1133C001A70FCF7F7FD0246144B1A60134B1B683D
S1133C10002B0ADB114B1B68192B03DD104B01220F
S1133C201A7002E00F4B01221A700F4B1B78DBB2A3
S1133C30002B14BF01230023DBB283F00103DBB2AA
S1133C4003F00103DAB2084B1A70084B01221A7010
S1133C5000BF80BD0004014073020020500000201A
S1133C607102002068020020750200207402002006
S1133C7080B582B000AF0346FB71FB79092B02D0FB
S1133C800A2B1BD035E01D48FFF731FF03461A46C7
S1133C901B4B1A601B4B1B78DBB283F00103DBB2B6
S1133CA0002B07D000211548FFF72CFF01211348F2
S1133CB0FFF737FF134B01221A701AE00F48FFF782
S1133CC016FF03461A460E4B1A600F4B1B78DBB2E5
S1133CD083F00103DBB2002B07D000210748FFF774
S1133CE011FF01210548FFF71CFF074B01221A7041
S1133CF000BF00BF0837BD4680BD00BF00000140C3
S1133D0064020020720200206A02002080B483B0A2
S1133D1000AF0346FB71FB7903F01F02064997F9D4
S1133D2007305B09012000FA02F241F8232000BFAA
S1133D300C37BD4680BC704700E100E080B483B01E
S1133D4000AF78604FF6FF7318460C37BD4680BC51
S1133D50704780B582B000AF786039607868FFF74B
S1133D60EDFF7B683A685A6200BF0837BD4680BDE4
S1133D7080B483B000AF786039607B683A689A6138
S1133D8000BF0C37BD4680BC704780B483B000AF21
S1133D90786039607B68DA683B681A437B68DA606C
S1133DA000BF0C37BD4680BC704780B582B000AF01
S1133DB0786039607868FFF7C1FF7B683A68DA6138
S1133DC000BF0837BD4680BD80B584B002AF3960FE
S1133DD011461A460346FB710B46BB7113467B71B1
S1133DE0BA79F8793B7C01937B79009313463A685E
S1133DF03968FEF72FFA00BF0837BD4680BD0000C2
S1133E0080B500AF01210F48FDF77EFD01210E486A
S1133E10FDF77AFD01210D48FDF776FD0122012110
S1133E200020FEF7E3F801210948FDF76DFD0221AA
S1133E300848FDF76BFF01210748FDF765FD00BF4A
S1133E4080BD00BF00D204000052040000620400E0
S1133E500043020002001C008016120080B582B0EC
S1133E6002AF0023042202210420FEF75DFA00239E
S1133E70042203210420FEF757FA0023012209211A
S1133E800120FEF751FA002301220A210120FEF746
S1133E904BFAFCF7E1FD0D490920FCF7EDFD0B4958
S1133EA00A20FCF7E9FD01230093002301220921E4
S1133EB00120FFF789FF01230093002301220A2137
S1133EC00120FFF781FF00BFBD4680BD713C0000AB
S1133ED080B588B000AF07F1100300221A605A6061
S1133EE09A601A7301233B7400233B740123FB760D
S1133EF00A23BB7407F1100319462148FFF7B0F9F0
S1133F0000211F48FFF725FF40F6AE211C48FFF7AC
S1133F104CFF01211A48FFF72BFF01211848FFF736
S1133F2034FF0220FFF7F2FE3B4600221A605A607B
S1133F309A601A7301233B7001233B700023FB72C8
S1133F400A23BB703B4619460E48FFF789F9002146
S1133F500C48FFF7FEFE4FF47A710A48FFF725FF7D
S1133F6001210848FFF704FF01210648FFF70DFF70
S1133F700C20FFF7CBFE00BF2037BD4680BD00BF3D
S1133F80000001400004014080B500AFFFF7A2FC2F
S1133F900120FFF789FC024801F062FD00BF80BDEB
S1133FA07471000080B500AF1B4B00221A701B4BCC
S1133FB000221A601A4B00221A701A4B00221A604F
S1133FC0194B00221A70194B00221A70184B002248
S1133FD01A70184B00221A70174B00221A70174BD4
S1133FE000221A70164B00221A70164B00221A7007
S1133FF0FFF706FFFFF732FFFFF7C6FFFFF768FF83
S11340000020FCF7A7FC0020FCF782FE0020FCF750
S1134010DBFE00BF80BD00BF740200206C020020E4
S1134020750200207802002060020020690200204E
S11340307002002071020020680200207202002039
S11340406A0200207302002080B400AF034BDB6CD3
S11340501B0EDBB21846BD4680BC7047B081E00F32
S113406080B582B000AFFFF7EFFF0346FB713B1D45
S11340701846FFF791F8FB790F2B0AD93B79022BED
S113408007D9064B1B6823F05003044A43F010037E
S1134090136000BF0837BD4680BD00BFC0800C4020
S11340A080B500AFFFF7DCFFFFF77CFF1C48FCF78F
S11340B047FF00BF1B4B1B78DBB283F00103DBB26D
S11340C0002BF7D1174B00221A70174B1B685A426A
S11340D003F00F0302F00F0258BF5342134A136058
S11340E0124B1B681946124801F0BAFC00F0AAFBF7
S11340F000F082F900F050FA0E4B1B68082BF7D140
S113410000F004FA02E00C48FCF71AFF054B1B7898
S1134110DBB283F00103DBB2002BF4D1E8E700BF8C
S11341207C710000700200206402002078020020EC
S1134130847100006C0200209471000080B483B08C
S113414000AF786039607B68002B04D13B68042B96
S113415001D1002368E07B68042B04D13B68032B66
S113416001D1012360E07B68042B04D13B68012B5F
S113417001D1022358E07B68002B04D13B68002B5B
S113418001D1032350E07B68002B04D13B68012B51
S113419001D1042348E07B68002B04D13B68032B46
S11341A001D1052340E07B68002B04D13B68022B3E
S11341B001D1062338E07B68012B04D13B68032B33
S11341C001D1072330E07B68022B04D13B68032B29
S11341D001D1082328E07B68032B04D13B68032B1F
S11341E001D1092320E07B68012B04D13B68022B19
S11341F001D10A2318E07B68032B04D13B68012B0F
S113420001D10B2310E07B68022B04D13B68012B06
S113421001D10C2308E07B68012B04D13B68012BFE
S113422001D10D2300E0002318460C37BD4680BCA5
S11342307047000080B485B000AF786039603B6897
S1134240002B02D03B68042B0BD17B682D4A82FBE8
S113425003121A449210DB17D31A9BB23B8100233A
S11342607B813B68012B02D03B68032B1CD17B680C
S1134270244A82FB03121A449210DB17D31A9BB20E
S11342803B817A681F4B83FB021313449910D317A5
S1134290C91A0B46DB005B1AD11A8BB27B817B896E
S11342A0042B01D904237B813B68022B1CD17B683E
S11342B0144A82FB03121A449210DB17D31A9BB2DE
S11342C03B817A680F4B83FB021313449910D31775
S11342D0C91A0B46DB005B1AD11A8BB27B817B892E
S11342E0012B01D901237B81BB68FB600023BA89C0
S11342F062F30F03FA8962F31F4318461437BD466D
S113430080BC70479324499280B582B000AF0023EB
S11343107B600EE00A4B1B78DBB2002B09D0012135
S11343207868FCF779FE7B6801337B60044B0022DC
S11343301A707B68092BEDD100BF0837BD4680BDDC
S11343407402002080B582B000AF00237B6006E0D9
S113435000217868FCF760FE7B6801337B607B6832
S1134360082BF5DD00BF0837BD4680BD80B582B09F
S113437000AF00237B6006E001217868FCF74CFE67
S11343807B6801337B607B68082BF5DD00BF083751
S1134390BD4680BD80B582B000AF164B00221A70B6
S11343A000237B601EE0FFF7E1FF00BF114B1B7889
S11343B0DBB283F00103DBB2002BF7D10D4B0022FB
S11343C01A70FFF7BFFF00BF0A4B1B78DBB283F004
S11343D00103DBB2002BF7D1064B00221A707B6875
S11343E001337B607B68022BDDDD00BF0837BD46EF
S11343F080BD00BF7402002080B582B000AF3B4B8B
S11344001B78DBB2002B28D0394B1B78DBB2002B96
S11344100FD0384B1B68013B364A1360354B1B6881
S1134420002B02DA334B30221A60314B00221A700F
S113443013E0314B1B78DBB2002B0ED02D4B1B68E5
S113444001332C4A13602B4B1B68302B02DD294BA4
S113445000221A60284B00221A70244B00221A7082
S1134460264B1B78DBB2002B0FD0254B1B68013386
S1134470234A1360224B1B68042B02DD204B0022CD
S11344801A601E4B00221A7013E01E4B1B78DBB21D
S1134490002B0ED01A4B1B68013B194A1360184BB2
S11344A01B68002B02DA164B04221A60154B0022FB
S11344B01A70154B1B78DBB2002B13D00D4B1A6806
S11344C00F4B1B681946104600F03AF803467B6010
S11344D0FFF71AFF786800F01BF9FFF733FF0A4B68
S11344E000221A7000BF0837BD4680BD7302002049
S11344F068020020500200207102002060020020A7
S113450054020020690200207002002080B582B0AD
S113451000AF0023FB7107E0FB79084A002122F871
S11345201310FB790133FB71FB79062BF4D9034893
S113453001F0FAF900BF0837BD4680BD900A00209B
S113454080B584B000AF124B1A68124B1B68194631
S11345501046FFF76FFE03467B60BB883B81FB88F8
S11345601A460C4B1B6819461046FFF7E7FD034635
S11345709BB27B81BB68FB600023BA8962F30F03A3
S1134580FA8962F31F4318461037BD4680BD00BF49
S1134590500200205402002080B582B000AFFFF723
S11345A0CFFF03463B60384B1B78DBB2002B12D0A5
S11345B03B881A46354B33F812301AB27B881946B9
S11345C001238B401BB213431BB23A8899B22F4B81
S11345D023F8121013E03B881A462C4B33F81230A0
S11345E01AB27B88194601238B401BB2DB431BB2F2
S11345F013401BB23A8899B2244B23F81210244B6F
S11346001A883B889A4204D1214B5A887B889A4263
S113461017D01F4B1B881A461C4B33F812301AB2A2
S11346201B4B5B88194601238B401BB2DB431BB237
S1134630134019B2164B1B881A4689B2134B23F840
S1134640121000237B6010E0104A7B6832F81320BC
S113465010497B6831F81330134399B20B4A7B68D5
S113466022F813107B6801337B607B68062BEBDD3B
S1134670074B1A463B4618681060044801F054F989
S113468000BF0837BD4680BD75020020900A002097
S11346908C0200207C02002090B486B000AF3C461F
S11346A084E80F0000237B6127E07B699B0007F10E
S11346B01802134433F8143C1A46144B33F81230DE
S11346C01AB27B699B0007F118010B4433F8123CC2
S11346D0194601238B401BB2134319B27B699B001B
S11346E007F11802134433F8143C1A4689B2074BF5
S11346F023F812107B6901337B613B687A699A4223
S1134700D3DB00BF1837BD4690BC70477C02002045
S113471080B586B000AF7860BB881946FB881A461E
S1134720424801F09DF900237B6176E000233B6160
S11347306DE00023FB6058E03D4B1B683D499A0047
S11347407B6913445A003B6913449A00FB68134481
S11347509B000B445B68BB603A89BB889A4241D199
S11347607A89FB889A423DD1314B1B6831499A00C2
S11347707B6913445A003B6913441B010B440C33FB
S11347801B7883F00103DBB2002B2BD02A4801F005
S113479067F92A4B1B680133284A1360FFF7FAFDB7
S11347A0234B1B6823499A007B6913445A003B69D5
S11347B013441B010B440C3301221A701C4B1B685D
S11347C01C499A007B6913445A003B6913441B013A
S11347D00B440FCBFFF760FF184B1B681846FCF720
S11347E0F3FA20E0FB680133FB60114B1B681149AD
S11347F09A007B6913445A003B6913441B010B4420
S11348001B68FA689A4297DB3B6901333B613B6959
S1134810012B8EDD7B6901337B617B69032B85DD95
S1134820074801F01DF91837BD4680BD9C71000092
S11348307802002090020020B47100006C02002075
S1134840BC71000080B400AFC34B0122DA80C24BBC
S11348500222DA82C04B00229A80BF4B00229A8245
S1134860BD4B00221A73BC4B01221A60BA4B0022C2
S11348701A77B94B01221A61B74B0822DA84B64B76
S11348800C22DA86B44B01229A84B34B01229A8615
S1134890B14B002283F82C20AF4B01221A62AE4B9D
S11348A0002283F83C20AC4B01221A63AA4B00225D
S11348B0A3F84620A84B0022A3F85620A64B0222B8
S11348C0A3F84420A44B0322A3F85420A24B0022B3
S11348D083F84C20A04B01221A649F4B002283F8DA
S11348E05C209D4B01221A659B4B0622A3F866208F
S11348F0994B0622A3F87620974B0422A3F8642050
S1134900954B0522A3F87420934B0A22A3F86A203E
S1134910914B0A22A3F87A208F4B0422A3F8682033
S11349208D4B0522A3F878208B4B002283F86C2052
S1134930894B02221A66884B002283F87C20864B1E
S113494002221A67844B0122A3F88620824B02229A
S1134950A3F89620804B0122A3F884207E4B0122E9
S1134960A3F894207C4B002283F88C207A4B0122FC
S1134970C3F88020784B002283F89C20764B0122D8
S1134980C3F89020744B0822A3F8A620724B0C2283
S1134990A3F8B620704B0222A3F8A4206E4B022287
S11349A0A3F8B4206C4B002283F8AC206A4B01229C
S11349B0C3F8A020684B002283F8BC20664B012278
S11349C0C3F8B020644B0022A3F8C620624B002237
S11349D0A3F8D620604B0322A3F8C4205E4B042224
S11349E0A3F8D4205C4B002283F8CC205A4B01223C
S11349F0C3F8C020584B002283F8DC20564B012218
S1134A00C3F8D020544B0622A3F8E620524B0622CA
S1134A10A3F8F620504B0522A3F8E4204E4B0622BF
S1134A20A3F8F4204C4B0A22A3F8EA204A4B0A22AA
S1134A30A3F8FA20484B0522A3F8E820464B0622A7
S1134A40A3F8F820444B002283F8EC20424B0222C6
S1134A50C3F8E020404B002283F8FC203E4B0222A6
S1134A60C3F8F0203C4B0922A3F806213A4B0D224F
S1134A70A3F81621384B0022A3F80421364B002258
S1134A80A3F81421344B002283F80C21324B012269
S1134A90C3F80021304B002283F81C212E4B012245
S1134AA0C3F810212C4B0822A3F826212A4B0C22F0
S1134AB0A3F83621284B0122A3F82421264B0122F6
S1134AC0A3F83421244B002283F82C21224B012209
S1134AD0C3F82021204B002283F83C211E4B0122E5
S1134AE0C3F830211C4B0722A3F846211A4B0B2292
S1134AF0A3F85621184B0322A3F84421164B032292
S1134B00A3F85421144B002283F84C21124B0122A8
S1134B10C3F84021104B002283F85C210E4B012284
S1134B20C3F850210C4B0122A3F866210A4B022240
S1134B30A3F87621084B0422A3F86421064B04222F
S1134B40A3F87421044B002283F86C21024B012248
S1134B50C3F8602102E000BF90020020CA4B00228B
S1134B6083F87C21C84B0122C3F87021C64B09226B
S1134B70A3F88621C44B0D22A3F89621C24B01222F
S1134B80A3F88421C04B0122A3F89421BE4B002238
S1134B9083F88C21BC4B0122C3F88021BA4B00223C
S1134BA083F89C21B84B0122C3F89021B64B08220C
S1134BB0A3F8A621B44B0C22A3F8B621B24B0222CF
S1134BC0A3F8A421B04B0222A3F8B421AE4B0022D7
S1134BD083F8AC21AC4B0122C3F8A021AA4B0022DC
S1134BE083F8BC21A84B0122C3F8B021A64B0722AD
S1134BF0A3F8C621A44B0B22A3F8D621A24B04226E
S1134C00A3F8C421A04B0422A3F8D4219E4B002274
S1134C1083F8CC219C4B0122C3F8C0219A4B00227B
S1134C2083F8DC21984B0122C3F8D021964B012252
S1134C30A3F8E621944B0222A3F8F621924B052215
S1134C40A3F8E421904B0522A3F8F4218E4B002213
S1134C5083F8EC218C4B0122C3F8E0218A4B00221B
S1134C6083F8FC21884B0122C3F8F021864B0922EA
S1134C70A3F80622844B0D22A3F81622824B0222AB
S1134C80A3F80422804B0222A3F814227E4B0022B4
S1134C9083F80C227C4B0122C3F800227A4B0022B9
S1134CA083F81C22784B0122C3F81022764B082289
S1134CB0A3F82622744B0C22A3F83622724B03224B
S1134CC0A3F82422704B0322A3F834226E4B002253
S1134CD083F82C226C4B0122C3F820226A4B002259
S1134CE083F83C22684B0122C3F83022664B07222A
S1134CF0A3F84622644B0B22A3F85622624B0522EA
S1134D00A3F84422604B0522A3F854225E4B0022F0
S1134D1083F84C225C4B0122C3F840225A4B0022F8
S1134D2083F85C22584B0122C3F85022564B0122CF
S1134D30A3F86622544B0222A3F87622524B062291
S1134D40A3F86422504B0622A3F874224E4B00228F
S1134D5083F86C224C4B0122C3F860224A4B002298
S1134D6083F87C22484B0122C3F87022464B092267
S1134D70A3F88622444B0D22A3F89622424B00222C
S1134D80A3F88422404B0022A3F894223E4B002235
S1134D9083F88C223C4B0122C3F880223A4B002238
S1134DA083F89C22384B0122C3F89022364B082208
S1134DB0A3F8A622344B0C22A3F8B622324B0222CB
S1134DC0A3F8A422304B0222A3F8B4222E4B0022D3
S1134DD083F8AC222C4B0122C3F8A0222A4B0022D8
S1134DE083F8BC22284B0122C3F8B022264B0722A9
S1134DF0A3F8C622244B0B22A3F8D622224B04226A
S1134E00A3F8C422204B0422A3F8D4221E4B002270
S1134E1083F8CC221C4B0122C3F8C0221A4B002277
S1134E2083F8DC22184B0122C3F8D022164B01224E
S1134E30A3F8E622144B0222A3F8F622124B062210
S1134E40A3F8E422104B0622A3F8F4220E4B00220E
S1134E5083F8EC220C4B0122C3F8E0220A4B002217
S1134E6083F8FC22084B0122C3F8F022064B0922E6
S1134E70A3F80623044B0D22A3F81623024B0022A9
S1134E80A3F8042302E000BF90020020CA4B0022D2
S1134E90A3F81423C84B002283F80C23C64B012229
S1134EA0C3F80023C44B002283F81C23C24B012205
S1134EB0C3F81023C04B0822A3F82623BE4B0C22B0
S1134EC0A3F83623BC4B0122A3F82423BA4B0122B6
S1134ED0A3F83423B84B002283F82C23B64B0122C9
S1134EE0C3F82023B44B002283F83C23B24B0122A5
S1134EF0C3F83023B04B0722A3F84623AE4B0B2252
S1134F00A3F85623AC4B0522A3F84423AA4B05224D
S1134F10A3F85423A84B002283F84C23A64B012268
S1134F20C3F84023A44B002283F85C23A24B012244
S1134F30C3F85023A04B0122A3F866239E4B022200
S1134F40A3F876239C4B0622A3F864239A4B0622EB
S1134F50A3F87423984B002283F86C23964B012208
S1134F60C3F86023944B002283F87C23924B0122E4
S1134F70C3F87023904B0022A3F886238E4B0022A3
S1134F80A3F896238C4B0022A3F884238A4B012296
S1134F90A3F89423884B002283F88C23864B0122A8
S1134FA0C3F88023844B002283F89C23824B012284
S1134FB0C3F89023804B0322A3F8A6237E4B03223D
S1134FC0A3F8B6237C4B0122A3F8A4237A4B022234
S1134FD0A3F8B423784B002283F8AC23764B012248
S1134FE0C3F8A023744B002283F8BC23724B012224
S1134FF0C3F8B023704B0122A3F8C6236E4B0222E0
S1135000A3F8D6236C4B0322A3F8C4236A4B0322D0
S1135010A3F8D423684B002283F8CC23664B0122E7
S1135020C3F8C023644B002283F8DC23624B0122C3
S1135030C3F8D023604B0722A3F8E6235E4B0B2270
S1135040A3F8F6235C4B0422A3F8E4235A4B04226E
S1135050A3F8F423584B002283F8EC23564B012287
S1135060C3F8E023544B002283F8FC23524B012263
S1135070C3F8F023504B0022A3F806244E4B002221
S1135080A3F816244C4B0222A3F804244A4B03220F
S1135090A3F81424484B002283F80C24464B012225
S11350A0C3F80024444B002283F81C24424B012201
S11350B0C3F81024404B0322A3F826243E4B0322BA
S11350C0A3F836243C4B0222A3F824243A4B0322AF
S11350D0A3F83424384B002283F82C24364B0122C5
S11350E0C3F82024344B002283F83C24324B0122A1
S11350F0C3F83024304B0122A3F846242E4B02225D
S1135100A3F856242C4B0122A3F844242A4B012251
S1135110A3F85424284B002283F84C24264B012264
S1135120C3F84024244B002283F85C24224B012240
S1135130C3F85024204B0722A3F866241E4B0B22ED
S1135140A3F876241C4B0522A3F864241A4B0522E9
S1135150A3F87424184B002283F86C24164B012204
S1135160C3F86024144B002283F87C24124B0122E0
S1135170C3F87024104B0022A3F886240E4B00229F
S1135180A3F896240C4B0022A3F884240A4B012292
S1135190A3F89424084B002283F88C24064B0122A4
S11351A0C3F88024044B002283F89C24024B012280
S11351B0C3F8902402E000BF90020020CA4B0322EF
S11351C0A3F8A624C84B0322A3F8B624C64B042292
S11351D0A3F8A424C44B0522A3F8B424C24B002290
S11351E083F8AC24C04B0122C3F8A024BE4B002298
S11351F083F8BC24BC4B0122C3F8B024BA4B01226F
S1135200A3F8C624B84B0222A3F8D624B64B022234
S1135210A3F8C424B44B0222A3F8D424B24B002232
S113522083F8CC24B04B0122C3F8C024AE4B002237
S113523083F8DC24AC4B0122C3F8D024AA4B072208
S1135240A3F8E624A84B0B22A3F8F624A64B0622C7
S1135250A3F8E424A44B0622A3F8F424A24B0022CE
S113526083F8EC24A04B0122C3F8E0249E4B0022D7
S113527083F8FC249C4B0122C3F8F0249A4B0022AF
S1135280A3F80625984B0022A3F81625964B062270
S1135290A3F80425944B0522A3F81425924B00226D
S11352A083F80C25904B0122C3F800258E4B002275
S11352B083F81C258C4B0122C3F810258A4B03224A
S11352C0A3F82625884B0322A3F83625864B06220D
S11352D0A3F82425844B0522A3F83425824B00220D
S11352E083F82C25804B0122C3F820257E4B002215
S11352F083F83C257C4B0122C3F830257A4B0122EC
S1135300A3F84625784B0222A3F85625764B0122B2
S1135310A3F84425744B0122A3F85425724B0022B0
S113532083F84C25704B0122C3F840256E4B0022B4
S113533083F85C256C4B0122C3F850256A4B072285
S1135340A3F86625684B0B22A3F87625664B032247
S1135350A3F86425644B0322A3F87425624B00224E
S113536083F86C25604B0122C3F860255E4B002254
S113537083F87C255C4B0122C3F870255A4B00222C
S1135380A3F88625584B0022A3F89625564B0222F3
S1135390A3F88425544B0322A3F89425524B0022EE
S11353A083F88C25504B0122C3F880254E4B0022F4
S11353B083F89C254C4B0122C3F890254A4B0322C9
S11353C0A3F8A625484B0322A3F8B625464B022290
S11353D0A3F8A425444B0322A3F8B425424B00228E
S11353E083F8AC25404B0122C3F8A0253E4B002294
S11353F083F8BC253C4B0122C3F8B0253A4B042268
S1135400A3F8C625384B0522A3F8D625364B01222E
S1135410A3F8C425344B0122A3F8D425324B00222F
S113542083F8CC25304B0122C3F8C0252E4B002233
S113543083F8DC252C4B0122C3F8D0252A4B01220A
S1135440A3F8E625284B0222A3F8F625264B0422CE
S1135450A3F8E425244B0422A3F8F425224B0022CC
S113546083F8EC25204B0122C3F8E0251E4B0022D3
S113547083F8FC251C4B0122C3F8F0251A4B0122AA
S1135480A3F80626184B0222A3F81626164B002270
S1135490A3F80426144B0022A3F81426124B00226E
S11354A083F80C26104B0122C3F800260E4B002271
S11354B083F81C260C4B0122C3F810260A4B042245
S11354C0A3F82626084B0522A3F83626064B00220D
S11354D0A3F82426044B0022A3F83426024B00220E
S11354E083F82C2602E000BF90020020CA4B012260
S11354F0C3F82026C84B002283F83C26C64B012261
S1135500C3F83026C44B0422A3F84626C24B052216
S1135510A3F85626C04B0622A3F84426BE4B062207
S1135520A3F85426BC4B002283F84C26BA4B012224
S1135530C3F84026B84B002283F85C26B64B012200
S1135540C3F85026B44B0122A3F86626B24B0222BC
S1135550A3F87626B04B0622A3F86426AE4B0622A7
S1135560A3F87426AC4B002283F86C26AA4B0122C4
S1135570C3F86026A84B002283F87C26A64B0122A0
S1135580C3F87026A44B0122A3F88626A24B02225C
S1135590A3F89626A04B0222A3F884269E4B02224F
S11355A0A3F894269C4B002283F88C269A4B012264
S11355B0C3F88026984B002283F89C26964B012240
S11355C0C3F89026944B0422A3F8A626924B0522F6
S11355D0A3F8B626904B0422A3F8A4268E4B0422EB
S11355E0A3F8B4268C4B002283F8AC268A4B012204
S11355F0C3F8A026884B002283F8BC26864B0122E0
S1135600C3F8B026844B0422A3F8C626824B052295
S1135610A3F8D626804B0022A3F8C4267E4B002292
S1135620A3F8D4267C4B002283F8CC267A4B0122A3
S1135630C3F8C026784B002283F8DC26764B01227F
S1135640C3F8D026744B0122A3F8E626724B02223B
S1135650A3F8F626704B0622A3F8E4266E4B062226
S1135660A3F8F4266C4B002283F8EC266A4B012243
S1135670C3F8E026684B002283F8FC26664B01221F
S1135680C3F8F026644B0022A3F80627624B0022DD
S1135690A3F81627604B0122A3F804275E4B0222CD
S11356A0A3F814275C4B002283F80C275A4B0122E1
S11356B0C3F80027584B002283F81C27564B0122BD
S11356C0C3F81027544B0322A3F82627524B032276
S11356D0A3F83627504B0422A3F824274E4B052267
S11356E0A3F834274C4B002283F82C274A4B012281
S11356F0C3F82027484B002283F83C27464B01225D
S1135700C3F83027444B0422A3F84627424B052212
S1135710A3F85627404B0022A3F844273E4B00220F
S1135720A3F854273C4B002283F84C273A4B012220
S1135730C3F84027384B002283F85C27364B0122FC
S1135740C3F85027344B0122A3F86627324B0222B8
S1135750A3F87627304B0622A3F864272E4B0622A3
S1135760A3F874272C4B002283F86C272A4B0122C0
S1135770C3F86027284B002283F87C27264B01229C
S1135780C3F87027244B0022A3F88627224B00225B
S1135790A3F89627204B0022A3F884271E4B01224E
S11357A0A3F894271C4B002283F88C271A4B012260
S11357B0C3F88027184B002283F89C27164B01223C
S11357C0C3F89027144B0322A3F8A627124B0322F5
S11357D0A3F8B627104B0022A3F8A4270E4B0122EE
S11357E0A3F8B4270C4B002283F8AC270A4B012200
S11357F0C3F8A027084B002283F8BC27064B0122DC
S1135800C3F8B027044B0622A3F8C627024B06228E
S1135810A3F8D62702E000BF900200202D4B0522FA
S1135820A3F8C4272B4B0622A3F8D427294B0A221A
S1135830A3F8EA27274B0A22A3F8FA27254B0522C7
S1135840A3F8E827234B0622A3F8F827214B0022CC
S113585083F8CC271F4B0122C3F8C0271D4B00221D
S113586083F8DC271B4B0122C3F8D027194B0622EF
S1135870A3F8E627174B0622A3F8F627154B0022B8
S1135880A3F8E427134B0122A3F8F427114B0A22AF
S1135890A3F8EA270F4B0A22A3F8FA270D4B00229C
S11358A0A3F8E8270B4B0122A3F8F827094B0022A1
S11358B083F8EC27074B0122C3F8E027054B0022AD
S11358C083F8FC27034B0122C3F8F02700BFBD4631
S11358D080BC70479002002080B483B000AF0346C0
S11358E0FB71FB79002B03D0054B01221A6602E001
S11358F0034B00221A6600BF0C37BD4680BC7047BC
S113590000A0084080B483B000AF786000BF054BAE
S11359105A6E7B681340002BF9D100BF0C37BD468B
S113592080BC704700A0084080B586B000AF7860A6
S11359304FF0FF30FFF7E6FF0120FFF7CDFF002314
S1135940BB753CE00023FB7533E0BA7DF97D21484B
S11359501346DB009B1A9B0003440B440E331B7855
S11359603B61BA7DF97D1B481346DB009B1A9B0003
S113597003440B441B78FB60BB7D5B007A681344D3
S11359801B881A46FB7D42FA03F303F00103002B44
S113599006D0FB68396901221846FCF701FE05E0D0
S11359A0FB68396900221846FCF7FAFDFB7D0133D8
S11359B0FB75FB7D0D2BC8D9BB7D0133BB75BB7D4E
S11359C0062BBFD90020FFF787FF00BF1837BD465D
S11359D080BD00BF540000200028B8BF404270477B
S11359E008B5074B044613B10021AFF30080054B03
S11359F01868836A03B198472046FDF71DFE00BF6F
S1135A0000000000C871000070B500250C4E0D4C5C
S1135A10A41BA410A54209D100F0CCFF00250A4E16
S1135A200A4CA41BA410A54205D170BD56F825301C
S1135A3098470135EEE756F8253098470135F2E7E7
S1135A407C0100207C0100207C01002080010020DA
S1135A5003460244934200D1704703F8011BF9E75F
S1135A600FB40A4B13B51C6824B1A36913B92046BB
S1135A7000F0B4F905AB049AA1682046019300F044
S1135A8071FB02B0BDE8104004B07047180100205B
S1135A902DE9F7431D46514B04461E680F469046B8
S1135AA026B1B36913B9304600F098F94C4B9C42C7
S1135AB052D17468B8F1020F06D0B8F1010F00F2A8
S1135AC08980002DC0F286802146304600F01CF902
S1135AD0616B41B104F14403994202D0304600F0B5
S1135AE073FA002363630023A3616360A3891B0625
S1135AF003D52169304600F067FAA389B8F1020F93
S1135B0023F44A6323F00303A3815DD001AB6A4607
S1135B102146304600F0ECF9A3891843A0812DBB3F
S1135B20009D284600F048FA074600284ED1DDF8CB
S1135B300090A9453CD14FF0FF30A38943F0020304
S1135B40A3810023A36004F147032360236101239D
S1135B50636103B0BDE8F083224B9C4201D1B46879
S1135B60A8E7214B9C4208BFF468A3E7002FD8D0D4
S1135B70B36913B9304600F031F9B8F1010F08BF29
S1135B80A389276004BF43F00103A381A389C4E967
S1135B90047513F008001BD013F001004FF000034C
S1135BA01FBF6D42A360A561184608BFA560D0E77A
S1135BB0484600F001FA07460028BCD0A3894D46A8
S1135BC043F08003A381D3E70020B6E7A946F5E7B5
S1135BD0A060BEE74FF0FF30BBE700BF1801002014
S1135BE0EC7100000C720000CC710000034613F845
S1135BF0012B002AFBD1181A013870478A892DE934
S1135C00F041054610070C4658D44B68002B05DCC0
S1135C100B6C002B02DC0020BDE8F081E66A002E4C
S1135C20F9D0002312F480522F68216A2B6032D0FD
S1135C30606DA3895A0705D56368C01A636B0BB1FD
S1135C40236CC01A00230246E66A216A2846B0473C
S1135C50431CA38906D129681D2948D8294ACA406A
S1135C60D60744D5002262602269D904226004D593
S1135C70421C01D12B6803B96065616B2F60002958
S1135C80C9D004F14403994202D0284600F09CF99B
S1135C9000206063C0E701232846B047411CC8D1F7
S1135CA02B68002BC5D01D2B01D0162B01D12F60E2
S1135CB0B1E7A38943F04003A381ADE70F69002F47
S1135CC0A9D0930718BF00230E6808BF4B69A6EB41
S1135CD007080F608B60B8F1000F9CDD43463A461D
S1135CE0216A2846A66AB047002806DCA38943F047
